:020000040000FA
:10000000280900206D020000810200008302000028
:100010008502000087020000890200000000000045
:100020000000000000000000000000008B02000043
:100030008D020000000000008F020000910200000D
:10004000930200009302000093020000930200005C
:10005000930200008520000093020000930200003C
:10006000930200009302000093020000930200003C
:10007000930200009302000093020000930200002C
:100080009302000093020000930200004D1A00004A
:1000900093020000291B000093020000011C0000D5
:1000A00093020000930200009302000093020000FC
:1000B0009302000093020000250A00009302000052
:1000C0009302000093020000930200009D1C0000B8
:1000D00093020000930200009302000093020000CC
:1000E00093020000000000000000000093020000E6
:1000F00093020000930200009302000093020000AC
:10010000930200009302000093020000930200009B
:1001100000000000000000009302000093020000B5
:10012000930200009302000093020000930200007B
:1001300093020000112100009302000093020000CE
:1001400000000000000000000000000000000000AF
:100150009302000093020000351D0000930200008E
:10016000000000000000000000000000000000008F
:10017000000000000000000000000000000000007F
:10018000000000000000000000000000000000006F
:10019000000000000000000000000000000000005F
:1001A000000000000000000000000000000000004F
:1001B000F11D000093020000930200009302000072
:1001C00093020000930200009302000093020000DB
:1001D00093020000930200009302000093020000CB
:1001E0009302000093020000930200000000000050
:1001F0000000000093020000930200009302000040
:1002000093020000930200000000000000000000C4
:10021000930200009302000093020000930200008A
:10022000930200009302000093020000930200007A
:10023000930200009302000093020000930200006A
:10024000930200009302000093020000930200005A
:10025000930200009302000093020000930200004A
:100260009302000093020000930200004EF68850B3
:10027000CEF20000016841F47001016000F00AB89C
:10028000FEE7FEE7FEE7FEE7FEE7FEE7FEE7FEE746
:10029000FEE7FEE7DFF80CD000F08AF800480047E0
:1002A000913100002809002072B6704762B670478D
:1002B000EFF3108072B6704780F31088704730BF3C
:1002C00070470000002800DA40427047034611F8EA
:1002D000012B00F8012B002AF9D1184670470000C5
:1002E00070B50F4D00B92868002412E00A4602E0FC
:1002F0009E4203D0521C1378002BF9D1DAB222436C
:1003000005D02BB124B1002100F8011B04E0044604
:10031000401C0678002EE9D12860204670BD000000
:100320000000002070B5064603F0B2FE04680546E2
:100330000A220021304600F002F82C6070BD2DE941
:10034000F04791460F4680460446002614F8015BAC
:100350002DB100F03FF80068405DC007F6D12B2DAD
:1003600002D02D2D18D0641E4A463946204600F092
:1003700035F827B13968A14201D1C7F8008071056D
:100380004FF002040BD54042002803DD03F080FE4D
:100390000460A007BDE8F08746F48066E4E7002823
:1003A000F8DA03F075FE04606FF00040F2E7000039
:1003B000064C074D06E0E06840F0010394E80700B2
:1003C00098471034AC42F6D3FFF768FF780001007D
:1003D0009800010000487047384100002DE9F05FA7
:1003E00082460078002715468B460AF10104B9467B
:1003F000302801D09DB113E014F8010B01277828B3
:1004000003D0582801D045B10AE00DB1102D07D115
:100410000027102514F8010B02E0082500E00A254A
:100420000026B0460EE005FB080005FB06F101279B
:1004300001EB10461FFA80F8B6F5803F00D3B946AD
:1004400014F8010B294600F018F80028EBDABBF18C
:10045000000F05D00FB1641E00E05446CBF80040F9
:10046000B9F1000F06D003F013FE02210160C81E8F
:10047000BDE8F09F48EA0640FAE73A2800D2303853
:1004800020F02002412A01D3A2F13700884201D393
:100490004FF0FF307047000080B590B040F2E04070
:1004A000C2F2000000F01EF9002800F0C080FFE753
:1004B00040F2E040C2F200004FF20311C0F200012E
:1004C0000A91FFF70DFF40F21801C2F200010990F6
:1004D0000846099A08911146FFF7F8FE0021079097
:1004E00008460A9A06911146FFF7FAFE40F21001FB
:1004F000C2F2000105900846059A04911146FFF7E3
:10050000E5FE0699039008460A99FFF7E9FE40F2D6
:100510000801C2F20001029008460299FFF7D6FED8
:10052000089901900846FFF7FDFE40F2D841C2F25B
:100530000001086004980091FFF7F4FE40F2D441F6
:10054000C2F2000108600098016800292BD1FFE782
:1005500003F05AFC01F0A6FE002807D0FFE701F0E7
:1005600041FB03F089FC03F0BBFB60E002F0A6FD59
:100570000D900D98002808D1FFE702F08BFD03F0E5
:100580004BFC012003F02EFC0CE00D98042804D055
:10059000FFE70D98052804D1FFE7002003F03CFC9D
:1005A000FFE7FFE742E040F2D840C2F200000068F7
:1005B00001283AD1FFE703F01FFC01F073FE002889
:1005C00007D0FFE701F00EFB03F056FC03F088FBB9
:1005D0002DE002F073FD0C900C98002812D1FFE77B
:1005E00002F058FD0B900B98042803D1FFE701207F
:1005F0000B9003E00B9801300B90FFE70B9803F092
:10060000F1FB11E00C98042804D1FFE7052003F06A
:1006100003FC08E00C98052804D1FFE7042003F050
:10062000FBFBFFE7FFE7FFE7FFE7FFE7FFE710B0B0
:1006300080BD00004EF20860C4F20F00016841F076
:1006400002010160FFE74EF20860C4F20F0000688B
:100650008007002801D4FFE7F5E745F20040C4F227
:100660000000016841F00F01016045F21C50C4F226
:100670000000016841F00F010160704782B00190F5
:10068000FFE70198002810D0FFE740F23E6000909D
:10069000FFE70098002804D0FFE700980138009099
:1006A000F7E7019801380190EBE702B070470000CE
:1006B00082B00190FFE70198002810D0FFE741F6D3
:1006C00009200090FFE70098002804D0FFE7009879
:1006D00001380090F7E7019801380190EBE702B08C
:1006E0007047000085B0039040F2C420C2F20000C1
:1006F000006840F2C021C2F200010968884203D1BB
:10070000FFE70020049038E000200190FFE740F26E
:10071000C020C2F20000006800F0070040F2BD01F6
:10072000C2F2000101EB80100199405C8DF80B00D2
:100730009DF80B000399019A8854019801300190AB
:10074000FFE7019800213F28009107DCFFE79DF8B3
:100750000B000A3818BF01200090FFE70098C0077F
:100760000028D4D1FFE740F2C020C2F200000168A7
:100770000131016001200490FFE7049805B0704743
:1007800080B54EF20860C4F20F00016841F010011C
:100790000160FFE74EF60820C4F20F000068C006B3
:1007A000002801D4FFE7F5E744F20040C4F202005C
:1007B000016841F00A010160016821F00101016056
:1007C00044F22040C4F20200016821F00B010160F4
:1007D00044F21C50C4F20200016841F00B010160B8
:1007E00044F22C50C4F2020001684FF2FF02914320
:1007F000016044F22850C4F20200016821F00B01AC
:100800000160022001F0CAFCFFF750FD80BD00002E
:1008100080B582B001468DF80700FFE79DF807001C
:1008200001F0C2FB002801D1FFE7F7E741F23800F1
:10083000C4F20100016821F020010160009002F083
:1008400027F80098016841F02001016002B080BDE6
:1008500080B582B00190FFE701980078002808D0A9
:10086000FFE701980078FFF7D3FF0198013001906E
:10087000F2E702B080BD000080B584B00390039819
:100880000A2818D3FFE703984CF6CD41CCF6CC41AB
:10089000A0FB0102D208029010460191FFF7ECFF85
:1008A00003980199A0FB0123DB0803EB8303A0EB72
:1008B00043000390FFE703983030C0B2FFF7A8FF72
:1008C00004B080BD80B584B044F20800C4F20200D8
:1008D0000021016041F2883203901046029101929A
:1008E000FFF7E6FE0220039908600198FFF7E0FE9B
:1008F00044F22000C4F202000299016004B080BDFD
:1009000080B582B0FFE744F20400C4F20200006840
:10091000002805D1FFE74FF47A70FFF7C9FEF2E730
:1009200040F22000C2F20000FFF792FF2C2001905D
:10093000FFF76EFF40F28000C2F20000FFF788FF71
:100940000198FFF765FF40F26000C2F20000FFF778
:100950007FFF0198FFF75CFF0A20FFF759FFFFE7D1
:1009600044F20400C4F202000068002805D0FFE74A
:100970004FF4FA70FFF79CFEF2E7FFE740F2103009
:10098000C2F20000FFF7AEFE002801D0FFE7F5E756
:1009900000F0EEF844F22000C4F2020008210160E9
:1009A00002B080BD45F21C40C4F20200012101608A
:1009B00045F21040C4F20200016841F001010160FB
:1009C0004EF21C40CEF200000168A02262F31741F3
:1009D00001604EF20010CEF200004FF08041016045
:1009E0007047000045F21C40C4F202001021016073
:1009F00045F21040C4F20200016841F010010160AC
:100A00004EF21C40CEF200000168A02262F31741B2
:100A100001604EF20010CEF200004FF08041016004
:100A20007047000080B545F21440C4F2020000682F
:100A3000C00600281DD5FFE745F21040C4F20200B1
:100A4000016821F01001016045F21C40C4F202006F
:100A50001021016040F26430C2F200000121016007
:100A600040F26C30C2F200000068804701F0D8F814
:100A700025E045F21440C4F202000068C0070028D7
:100A80001CD0FFE745F21040C4F20200016821F0DB
:100A90000101016045F21C40C4F202000121016025
:100AA00040F26030C2F20000016040F26830C2F2F1
:100AB00000000068804701F001F9FFE7FFE780BD13
:100AC00080B5022000F0B8FC40F2C840C2F200003D
:100AD0000121016040F2DC40C2F20000002101600F
:100AE00002F050FC80BD000081B000904EF270001A
:100AF000C4F20F00016841F000410160016841F457
:100B0000006101604EF26001C4F20F010A6822F434
:100B1000F8620A600A6802F5A8620A60016821F0BA
:100B20007001016001680160016821F400510160F9
:100B3000016841F080410160016821F0FE51009A96
:100B400001EB82510160FFE74EF25000C4F20F004A
:100B500000684006002801D4FFE7F5E74EF2700078
:100B6000C4F20F00016821F40061016001B0704718
:100B700080B582B0FFF79CFB019040F2C820C2F222
:100B800000000021016040F2C020C2F200000160BC
:100B900040F2C420C2F2000001600198FFF78CFB14
:100BA00002B080BD80B582B001468DF8030040F2EE
:100BB000C420C2F20000006840F2C022C2F200026B
:100BC0001268801AC008002803D0FFE700200190B7
:100BD00077E09DF8030040F2C421C2F200010968E9
:100BE00001F0070140F2BD02C2F2000202EB8111E6
:100BF00040F2C822C2F20002126888549DF8030035
:100C00000A2836D0FFE740F2C820C2F20000006890
:100C10003D2824D1FFE740F2C420C2F20000016861
:100C200001F0070140F2BD02C2F2000202EB8111A5
:100C30002C2381F83E30016801F0070102EB81119D
:100C40000A2281F83F2001680131016040F2C8208A
:100C5000C2F20000002101600120019031E040F269
:100C6000C820C2F20000016801310160012001903A
:100C700027E040F2C420C2F20000016801F0070141
:100C800040F2BD02C2F2000202EB811140F2C82321
:100C9000C2F20003D3F800C04FF02C0E01F80CE0B4
:100CA000016801F0070102EB81111A6811440A2260
:100CB0004A70016801310160002018600120019034
:100CC000FFE7019802B080BD40F2C420C2F20000EC
:100CD000006840F2C021C2F200010968401A704762
:100CE00082B001468DF8030040F25030C2F200009D
:100CF000006840F20C32C2F200021268801A8009C9
:100D0000002803D0FFE70020019013E09DF80300C6
:100D100040F25031C2F200010A6802F03F0240F294
:100D2000CC23C2F200039854086801300860012007
:100D30000190FFE7019802B07047000040F2503088
:100D4000C2F20000006840F20C31C2F200010968F2
:100D5000401A7047B0B588B0DDF830C09E460C46EA
:100D60000546ADF81E00ADF81C100692ADF8163021
:100D7000ADF814C00020ADF81200BDF81600ADF8B3
:100D80001000BDF91600BDF9141001394843039055
:100D9000BDF91E0040F21E01C2F20001B1F90010BF
:100DA00088421DDAFFE7BDF91C00BDF91410401A96
:100DB000013040F21C01C2F20001B1F9001088427A
:100DC0000EDAFFE7BDF91E00BDF916100844012830
:100DD00006DBFFE7BDF91C00B0F1FF3F01DCFFE7D8
:100DE000E9E0BDF9160040F21E01C2F20001B1F9BE
:100DF000001088420BDCFFE7BDF9140040F21C0133
:100E0000C2F20001B1F90010884201DDFFE7D2E033
:100E1000BDF91E00BDF916100844013840F21E014C
:100E2000C2F20001B1F90010884214DBFFE7BDF8FF
:100E30001E00BDF81610084440F21E01C2F2000167
:100E40000A88801AADF812000888BDF81E10401AF2
:100E5000ADF81600FFE7BDF91C00BDF91410401AEB
:100E60000130B0F1FF3F12DCFFE70398BDF9141029
:100E7000BDF91C20D2431144BDF9102001FB120022
:100E80000390BDF81C000130ADF81400FFE7BDF978
:100E90001E00B0F1FF3F15DCFFE7BDF81600BDF8FE
:100EA0001E100844ADF81600BDF81E004042ADF813
:100EB00012000398BDF91E10401A03900020ADF8EF
:100EC0001E00FFE7BDF91C0040F21C01C2F2000148
:100ED000B1F90010884213DBFFE7BDF81400BDF83C
:100EE0001C1040F21C02C2F200021388C91AC94346
:100EF0000844ADF8140010880138ADF81C00FFE775
:100F0000BDF81400BDF81C10081A0130BDF81E20F1
:100F1000BDF816301344013BC0B2DBB2D2B2C9B245
:100F200002901046029A019111461A46019B02F066
:100F3000F5FE0020ADF81C00FFE7BDF91C00BDF96F
:100F40001410884234DAFFE70020ADF81E00FFE7F6
:100F5000BDF91E00BDF91610884217DAFFE70698A2
:100F6000039900EB4100407803F074F80698039968
:100F700010F8110003F06EF8039801300390FFE7BA
:100F8000BDF81E000130ADF81E00E1E70398BDF981
:100F90001210084403900398BDF91010A0EB410013
:100FA0000390FFE7BDF81C000130ADF81C00C4E75A
:100FB00001F096FCFFE708B0B0BD0000F0B589B0C5
:100FC000DDF83CC0DDF838E01C4615460E46074605
:100FD000ADF82200ADF820108DF81F20ADF81C30C0
:100FE000ADF81AE08DF819C0BDF9220040F21E01DB
:100FF000C2F20001B1F90010884222DAFFE7BDF920
:10100000200040F21C01C2F20001B1F90010884238
:1010100017DAFFE7BDF922009DF8191001EB410135
:1010200000EB4100013800280BD4FFE7BDF9200098
:101030009DF8191000EBC1000138B0F1FF3F01DC51
:10104000FFE79BE000200590FFE70598052800F3E7
:101050009580FFE70598052804D1FFE700208DF86B
:1010600018000DE09DF81F0000EB80000599084472
:1010700044F23C11C0F20001085C8DF81800FFE753
:1010800000200490FFE70498072872DCFFE79DF832
:101090001800C00700282DD0FFE79DF8190001288F
:1010A0000FD1FFE7BDF8220005990844BDF82010D4
:1010B000049A1144BDF81C2000B209B200F060F897
:1010C00017E0BDF8220005999DF8192001FB0200E8
:1010D000BDF82010049B03FB0211BDF81C30EC4648
:1010E000CCF8003000B209B20392039B00F0DAF8AA
:1010F000FFE734E0BDF91A00BDF91C1088422DD07D
:10110000FFE79DF8190001280FD1FFE7BDF8220085
:1011100005990844BDF82010049A1144BDF81A201E
:1011200000B209B200F02CF817E0BDF822000599D2
:101130009DF8192001FB0200BDF82010049B03FB61
:101140000211BDF81A30EC46CCF8003000B209B2FA
:101150000292029B00F0A6F8FFE7FFE7FFE79DF889
:10116000180040088DF81800FFE70498013004903B
:1011700089E7FFE705980130059066E709B0F0BD03
:1011800080B584B013468C468646ADF80E00ADF8A7
:101190000C10ADF80A20BDF90E0000281BD4FFE7A3
:1011A000BDF90E0040F21E01C2F20001B1F90010BB
:1011B000884210DAFFE7BDF90C0000280BD4FFE7E6
:1011C000BDF90C0040F21C01C2F20001B1F900109F
:1011D000884201DBFFE710E09DF80E009DF80C103F
:1011E00001900091019A009B02F098FDBDF80A0061
:1011F00002F066FD01F074FBFFE704B080BD000063
:1012000010B588B09C468E460446ADF81A00ADF87D
:1012100018100592ADF8123000200390BDF81800A8
:10122000102803DBFFE70020079037E0FFE7059871
:10123000007800282FD0FFE7BDF81A0000EB40002F
:101240004000BDF8181001EB81014900059A1278A1
:10125000BDF91230EC464FF0010ECCF804E04FF02F
:10126000000ECCF800E000B209B2FFF7A7FE059827
:1012700001300590BDF81A000130ADF81A00BDF834
:101280001A00152803DBFFE70398079006E0039890
:1012900001300390CBE703980790FFE7079808B069
:1012A00010BD000070B584B0DDF820C09E46144625
:1012B0000D460646ADF80E00ADF80C10ADF80A204C
:1012C000ADF80830ADF806C09DF807008DF80500B0
:1012D0009DF806008DF80400BDF90E0040F21E01D5
:1012E000C2F20001B1F9001088420BDAFFE7BDF944
:1012F0000C0040F21C01C2F20001B1F9001088425A
:1013000001DBFFE775E0BDF90E00BDF90A100844E6
:10131000013840F21E01C2F20001B1F9001088420A
:101320000BDBFFE740F21E00C2F200000088BDF8B0
:101330000E10401AADF80A00FFE7BDF90C00BDF928
:1013400008100844013840F21C01C2F20001B1F952
:10135000001088420BDBFFE740F21C00C2F20000E5
:101360000088BDF80C10401AADF80800FFE7BDF882
:101370000E00BDF80A1001440139BDF80C20BDF87B
:1013800008301344013BC9B2DBB2C0B2D2B2009103
:101390001146009A02F0C2FCBDF80800ADF80C003E
:1013A000FFE7BDF90C00012820DBFFE7BDF80A00CC
:1013B000ADF80E00FFE7BDF90E0001280FDBFFE7D7
:1013C0009DF8050002F046FE9DF8040002F042FE82
:1013D000FFE7BDF80E000138ADF80E00EBE7FFE7C0
:1013E000BDF80C000138ADF80C00DAE701F078FA2E
:1013F000FFE704B070BD000080B584B00146ADF8D1
:101400000E0040F21E00C2F20000B0F9002040F2CF
:101410001C00C2F20000B0F90030BDF80E00EC462E
:10142000CCF8000000200290DDF808C00191614670
:10143000FFF738FF04B080BD80B584B001468DF859
:101440000F0044F23760C0F20000029101F0B4F8DE
:101450009DF80F00012813D1FFE744F27260C0F23B
:10146000000001F051F840F2A000C2F20000022199
:10147000017040F2BC00C2F200000121017006E0E0
:1014800044F27F60C0F2000001F03EF8FFE744F252
:101490008C60C0F2000001F037F89DF80F000328BF
:1014A00007D1FFE7362002F0A7FDC02002F0D2FDF1
:1014B000FFE79DF80F0040F25C31C2F200010870B6
:1014C00000200190019900F02DF940F21A00C2F2BB
:1014D000000040F2FF7101800198FFF78DFF04B01A
:1014E00080BD000070B58AB0DDF838C09E46144655
:1014F0000D460646ADF82600ADF82410ADF82220C2
:10150000ADF82030ADF81EC0BDF82000BDF82410A5
:10151000401ACDF818E0059404950396FEF7D2FE24
:10152000BDF82210BDF82620891A02900846FEF761
:10153000C9FE0299814228DAFFE7BDF82600BDF80E
:101540002210884210DAFFE7BDF82600BDF824100B
:10155000BDF82220BDF82030BDF81EC0EE46CEF802
:1015600000C001F0ADFF0FE0BDF82200BDF8201073
:10157000BDF82620BDF82430BDF81EC0EE46CEF8DA
:1015800000C001F09DFFFFE727E0BDF82400BDF893
:101590002010884210DAFFE7BDF82600BDF82410BD
:1015A000BDF82220BDF82030BDF81EC0EE46CEF8B2
:1015B00000C002F015F80FE0BDF82200BDF82010C1
:1015C000BDF82620BDF82430BDF81EC0EE46CEF88A
:1015D00000C002F005F8FFE7FFE70AB070BD0000A9
:1015E00080B584B001468DF80F009DF80F000A28E1
:1015F0000AD0FFE79DF80F000D2805D0FFE79DF802
:101600000F001B282BD1FFE740F25830C2F2000038
:1016100001680131016040F25431C2F20001002240
:101620000A600068102807D3FFE740F25830C2F282
:10163000000000210160FFE740F25830C2F20000D4
:10164000018840F21A00C2F20000B0F900304FF2F7
:10165000E802C0F200020020FFF7D2FD4CE040F2A9
:101660005430C2F20000016801EB4101490040F230
:101670005832C2F20002126802EB820252009DF858
:101680000F30EC464FF0010ECCF804E04FF0000EA6
:10169000CCF800E009B212B240F2FF7C029008469A
:1016A00011461A466346FFF789FC0298016801312A
:1016B0000160016815291ED3FFE740F25430C2F2E1
:1016C000000014210160006800EB4000400040F27F
:1016D0005831C2F20001096801EB810149006A46F4
:1016E000012353600023136000B209B22A221F2392
:1016F000FFF764FCFFE7FFE704B080BD80B582B070
:101700000190FFE701980078002808D0FFE70198D2
:101710000078FFF765FF019801300190F2E702B011
:1017200080BD000082B0019000910198142804D877
:10173000FFE70098102801D3FFE70CE0019840F282
:101740005431C2F200010860009840F25831C2F2F0
:1017500000010860FFE702B07047000080B584B068
:1017600001F09EFC0390039848F6AD31C6F6DB010C
:1017700050FB01F0021302EBD0700290039848F284
:101780001F52C5F2EB1250FB02F0431103EBD07075
:1017900050FB02F34FEA631C0CEBD3734FF0640C65
:1017A00003FB1C000190039850FB01F10B1303EBAA
:1017B000D17142F2107301FB130050FB02F14A1188
:1017C00002EBD17101FB1C0000900299462000F051
:1017D00019F90199472000F015F90099482000F007
:1017E00011F904B080BD000045F2FC30C4F20000E5
:1017F000016881F0020101607047000080B5FEF7CA
:1018000019FF41F2E970C0F2000043F68001C0F216
:101810000101052200F096F980BD000080B582B07C
:1018200000F040FD002807D0FFE700F0DBF902F0F0
:1018300023FB02F055FA1BE001F040FC01900198F7
:10184000002808D1FFE701F025FC02F0E5FA0120AD
:1018500002F0C8FA0CE00198042804D0FFE70198D0
:10186000052804D1FFE7002002F0D6FAFFE7FFE7E2
:1018700002B080BD80B582B000F014FD002807D012
:10188000FFE700F0AFF902F0F7FA02F029FA2AE0D8
:1018900001F014FC01900198002812D1FFE701F03B
:1018A000F9FB00900098042803D1FFE70120009085
:1018B00003E0009801300090FFE7009802F092FAF0
:1018C00011E00198042804D1FFE7052002F0A4FAF2
:1018D00008E00198052804D1FFE7042002F09CFAF3
:1018E000FFE7FFE7FFE702B080BD000080B584B0EE
:1018F000039002914EF20860C4F20F00016841F0BB
:101900002001016045F22050C4F2020044F24B3144
:10191000C4F64F41016045F22450C4F202001F2179
:10192000016045F20040C4F20200016841F00E017E
:101930000160016821F01101016045F22040C4F20C
:101940000200016821F01F01016045F21C50C4F241
:101950000200016841F01F01016045F22C50C4F201
:10196000020001686FF31301016045F22850C4F2D0
:1019700002000021016045F21050C4F2020002682A
:1019800042F01102026045F20440C4F20200026813
:1019900022F01102026045F20840C4F2020002681F
:1019A00022F01102026045F20C40C4F2020002680B
:1019B00042F0110202600191FFF714F8FEF7F2FF06
:1019C0004EF20460C4F20F00016841F00C010160A6
:1019D000039840F26C31C2F200010860029840F2B4
:1019E0006831C2F20001086040F26430C2F20000C7
:1019F0000199016040F26030C2F20000016004B061
:101A000080BD000080B584B0039002910398462801
:101A100004D3FFE70398642801D3FFE713E003989A
:101A2000FEF72AFF2C200190FEF7F2FE0298FEF747
:101A300023FF0198FEF7ECFE4FF2FE00C0F200001B
:101A4000FEF706FFFFE704B080BD000080B524204C
:101A5000C4F203000121016040F2AC00C2F20000B8
:101A60000068804780BD000083B002900191009221
:101A70004EF20460C4F20F00016841F00101016000
:101A8000029840F2AC01C2F2000108600C20C4F2DE
:101A90000300016821F0010101600021C4F203018B
:101AA00000220A600421C4F2030102230B600199A1
:101AB00001392823C4F2030319603821C4F2030159
:101AC0000A602421C4F2030101220A601821C4F231
:101AD00003010A6842F001020A604EF21041CEF2A0
:101AE00000010A6822F07F42009B42EA43720A60CA
:101AF0004EF20011CEF200014FF400220A6001689C
:101B000041F00101016003B0704700004EF2001087
:101B1000CEF200004FF4002101600C20C4F203005B
:101B2000002101607047000080B541F22400C4F23A
:101B300003000121016040F2B000C2F20000006821
:101B4000804780BD83B00290019100924EF2046004
:101B5000C4F20F00016841F002010160029840F2F6
:101B6000B001C2F20001086041F20C00C4F20300AF
:101B70000021016041F20002C4F20302116041F24F
:101B80000402C4F2030202231360019A013A41F2F3
:101B90002803C4F203031A6041F23802C4F20302BC
:101BA000116041F22401C4F2030101220A6041F2F2
:101BB0001801C4F203010A604EF21441CEF2000192
:101BC0000B6823F47F43DDF800C043EA4C330B601D
:101BD0004EF20011CEF200014FF400130B600260D0
:101BE00003B070474EF28010CEF200004FF40011A7
:101BF000016041F20C00C4F2030000210160704753
:101C000080B542F22400C4F203000121016042F2D7
:101C10001800C4F2030000210160FEF7E3FE80BD5E
:101C200042F20C00C4F203000021016042F2000203
:101C3000C4F20302116042F20402C4F2030201235F
:101C4000136042F22802C4F2030247F2001CC0F201
:101C5000020CC2F800C042F23802C4F20302116062
:101C600042F22401C4F203010B6042F21801C4F2F3
:101C700003010B604EF21441CEF200010A684FF0EE
:101C8000800C6CF31F620A604EF20011CEF200016C
:101C90004FF400020A6003607047000080B543F211
:101CA0002400C4F203000121016043F21800C4F2D1
:101CB000030000210160FEF775FE80BD43F20C00B9
:101CC000C4F203000021016043F20002C4F20302E7
:101CD000116043F20402C4F203020123136043F2D1
:101CE0002802C4F2030247F2001CC0F2020CC2F840
:101CF00000C043F23802C4F20302116043F224012F
:101D0000C4F203010B6043F21801C4F203010B603B
:101D10004EF22041CEF200010A6842F4000222F0A5
:101D20007F420A604EF20411CEF2000108220A60DE
:101D30000360704780B544F22400C4F2030001211F
:101D4000016040F2B400C2F200000068804780BD2C
:101D500083B00290019100924EF20460C4F20F0031
:101D6000016841F010010160029840F2B401C2F232
:101D70000001086044F20C00C4F20300002101607D
:101D800044F20002C4F20302116044F20402C4F2FD
:101D9000030202231360019A013A44F22803C4F2B9
:101DA00003031A6044F23802C4F20302116044F2E1
:101DB0002401C4F2030101220A6044F21801C4F2B2
:101DC00003010A604EF24441CEF200010B6823F495
:101DD0007F03DDF800C043EA4C530B604EF208115C
:101DE000CEF2000140230B60026003B07047000098
:101DF00080B545F22400C4F203000121016040F2E5
:101E0000B800C2F200000068804780BD83B0029035
:101E1000019100924EF20460C4F20F00016841F09B
:101E200020010160029840F2B801C2F2000108608E
:101E300045F20C00C4F203000021016045F20002EB
:101E4000C4F20302116045F20402C4F20302022349
:101E50001360019A013A45F22803C4F203031A60A1
:101E600045F23802C4F20302116045F22401C4F2C3
:101E7000030101220A6045F21801C4F203010A605D
:101E80004EF25C41CEF200010B6823F0FF03DDF857
:101E900000C043EA4C130B604EF20811CEF2000171
:101EA0004FF080530B60026003B0704780B582B082
:101EB00040F22050C2F200004FF49661016040F2FF
:101EC000A400C2F200000C21016040F2A800C2F29E
:101ED00000000021016040F2CC40C2F2000001602D
:101EE00040F2C440C2F200004FF0FF32026040F204
:101EF000D040C2F20000016040F22450C2F2000063
:101F0000016040F2C040C2F20000016043F2E10013
:101F1000C0F200004BF20042C0F2C44201911146EF
:101F2000019AFFF7A1FD02B080BD000082B00090D1
:101F300040F27440C2F20000006840F27041C2F208
:101F400000010968884203D1FFE70020019012E0F8
:101F500040F27040C2F200000168C9B240F2703233
:101F6000C2F20002515C009A1170016801310160F7
:101F700001200190FFE7019802B0704780B582B060
:101F8000FEF796F9019040F27040C2F20000002185
:101F9000016040F27440C2F2000001600198FEF757
:101FA0008BF902B080BD000082B001468DF80300BD
:101FB00040F27440C2F20000006840F27042C2F287
:101FC00000021268801A000A002803D0FFE70020F0
:101FD000019012E09DF8030040F27441C2F200014A
:101FE0000A68D2B240F27033C2F200039854086813
:101FF0000130086001200190FFE7019802B07047AE
:1020000040F27440C2F20000006840F27041C2F237
:1020100000010968401A704782B0009040F2BC404D
:10202000C2F20000006840F2B841C2F20001096843
:10203000884203D1FFE70020019013E040F2B8404E
:10204000C2F20000016801F03F0140F27842C2F2A2
:102050000002515C009A1170016801310160012099
:102060000190FFE7019802B07047000040F2BC40C9
:10207000C2F20000006840F2B841C2F200010968F3
:10208000401A704780B54CF23C00C4F20000006872
:102090008006002817D5FFE74CF24400C4F2000088
:1020A0002021016000F0CCFBFFF7E0FF002809D100
:1020B000FFE74CF23800C4F20000016821F0200173
:1020C0000160FFE7FFE74CF23C00C4F2000000684B
:1020D000C006002809D5FFE74CF24400C4F2000016
:1020E0001021016000F058FBFFE74CF23C00C4F205
:1020F000000000684006002809D5FFE74CF24400C4
:10210000C4F200004021016000F046FBFFE780BD03
:1021100080B541F23C00C4F201000068800600284E
:1021200017D5FFE741F24400C4F20100202101600D
:1021300000F0AEFBFFF764FF002809D1FFE741F292
:102140003800C4F20100016821F020010160FFE7BE
:10215000FFE741F23C00C4F201000068C00600281D
:1021600009D5FFE741F24400C4F2010010210160EB
:1021700000F03CFBFFE741F23C00C4F201000068C4
:102180004006002809D5FFE741F24400C4F20100EF
:102190004021016000F02AFBFFE780BD80B582B0DE
:1021A00001900198082803D3FFE707200190FFE77B
:1021B0004EF21860C4F20F00016841F02001016086
:1021C0004EF20860C4F20F00016841F01001016096
:1021D000FEF7CEFCFFF7D2FE41F23000C4F2010060
:1021E000016821F00101016041F22401C4F2010102
:1021F0004FF402720A6041F22801C4F20101352253
:102200000A6041F22C01C4F2010170220A6041F21D
:102210003401C4F201010A6822F03F020A600A6830
:102220000A6041F23801C4F201010A6842F070020A
:102230000A60016841F00101016044F22040C4F2EB
:102240000200016841F03001016044F21C50C4F208
:102250000200016841F03001016044F22C50C4F2E8
:1022600002000168112262F31741016044F2285014
:10227000C4F20200016821F0300101604EF23C40DE
:10228000CEF20000016821F47F41019A41EA423117
:1022900001604EF20410CEF200004FF000510160D8
:1022A00002B080BD40F2C040C2F20000006870473A
:1022B00080B58CB00B9000200A9009900B980128F3
:1022C0001AD1FFE700F000FF48F21F51C5F2EB11F1
:1022D00050FB01F0421102EBD0700A90079100F020
:1022E000F3FE079950FB01F2531103EBD272642302
:1022F00002FB130009902AE00B98022826D1FFE781
:1023000000F0C2FE0130002805D1FFE70C200A9042
:102310000020099019E000F0B7FE48F21F51C5F205
:10232000EB1150FB01F0421102EBD0700A900691C4
:1023300000F0AAFE069950FB01F2531103EBD27292
:10234000642302FB13000990FFE7FFE7FFE70A9809
:10235000099901F0D5F902200E21FFF7E3F94FF2B8
:102360006710C0F20000FFF7C9F968460A21016052
:102370004CF62052C0F2000222204123059119465A
:10238000059BFEF7E7FC0A980999002201F0E0FDA1
:102390000890FFE708980130002825D0FFE708984B
:1023A0000A900A98099901F0ABF902200E21FFF773
:1023B000B9F94FF26710C0F20000FFF79FF96846C5
:1023C0000A2101604CF62052C0F200022220412373
:1023D00004911946049BFEF7BDFC0A980999002256
:1023E00001F0B6FD0890D5E70A98099901F088F93F
:1023F00002200E21FFF796F94FF26710C0F200009D
:10240000FFF77CF968460A2101604CF62052C0F2C1
:1024100000025420412303911946039BFEF79AFCC6
:102420000A980999012201F093FD0890FFE70898A6
:102430000130002825D0FFE7089809900A980999EB
:1024400001F05EF902200E21FFF76CF94FF26710E0
:10245000C0F20000FFF752F968460A2101604CF60D
:102460002052C0F200025420412302911946029BDF
:10247000FEF770FC0A980999012201F069FD0890A5
:10248000D5E70B98012805D1FFE70A98099901F0D3
:10249000CDFC09E00B98022805D1FFE70A980999BD
:1024A00001F090FCFFE7FFE701F022FC00F06AFF7B
:1024B0000CB080BD81B040F2D040C2F20000006894
:1024C000002815D0FFE740F22050C2F2000000685B
:1024D00040F2C441C2F200010968884208D1FFE716
:1024E00040F2C040C2F2000001210160009102E010
:1024F00000200090FFE7009801B0704780B50020F1
:10250000FEF77AFF80BD000080B582B0019001988F
:10251000411C019100788DF80300FFE79DF803004E
:10252000411E8DF80310002843D0FFE70198411C9D
:102530000191007801F060FD0198411C0191007843
:102540008DF802009DF8020000F08000ADF8000058
:102550009DF8020000F07F008DF80200FFE79DF873
:102560000200411E8DF80210002807D0FFE70198F5
:10257000411C0191007801F06DFDF0E7BDF800000D
:10258000002815D0FFE70198411C01910078ADF8B3
:102590000000BDF80000FF2805D1FFE74FF4FA70F6
:1025A000ADF80000FFE7BDF80000FEF767F8FFE7B1
:1025B000B4E702B080BD0000B0B58AB0099040F227
:1025C000BC00C2F200000021017040F2A000C2F283
:1025D000000001704EF21C60C4F20F00016841F06F
:1025E000010101604EF20860C4F20F00016841F081
:1025F00001010160FFE74EF60820C4F20F000068F9
:10260000C007002801D1FFE7F5E744F20040C4F21B
:102610000000016841F0C801016044F22040C4F2AA
:102620000000016821F0C801016044F21C51C4F2AD
:1026300000010A6842F0C8020A6044F22C52C4F257
:102640000002136840F6FF7CC0F2FF0C03EA0C03A3
:10265000136044F22853C4F20003D3F800C02CF0F6
:10266000C80CC3F800C044F2200CC4F2000C4FF0B8
:10267000000ECCF800E044F2002CC4F2000C8024E0
:10268000CCF800404FF4FA75079028460691059261
:102690000493CDF80CE0CDF808C001940095FDF747
:1026A000EDFF0398029908600098FDF7E7FF019895
:1026B000029908600098FDF7E1FF0798016841F072
:1026C0002C01016006990A6842F02C020A60059A02
:1026D000136840F2FF0CCFF60F7C03EA0C0342F2C2
:1026E000002CC0F2200C43EA0C031360049BD3F8C7
:1026F00000C02CF02C0CC3F800C048F2040CC4F24B
:10270000000CDCF800E02EF0020ECCF800E0DCF863
:1027100000E02EF0040ECCF800E048F6C87EC4F2CB
:10272000000EDEF8004024F00F04CEF8004048F21E
:10273000100EC4F2000EDEF800400A2565F307040F
:10274000CEF8004048F2000EC4F2000EDEF8004061
:102750004FF6C075AC43CEF80040DEF8004024F0E0
:102760003004CEF80040DEF80040072565F303048E
:10277000CEF80040DCF800E04EF0020ECCF800E0AD
:10278000DDF824C0BCF1000F04D0FFE70998FFF783
:10279000BBFEFFE70AB0B0BD80B582B0FFE74CF2E8
:1027A0001800C4F2000000680021C0060028009153
:1027B00008D4FFE7FEF7C2FA00213F2838BF012105
:1027C0000091FFE70098C00700280CD0FFE74CF20B
:1027D0000000C4F2000000688DF807009DF80700B3
:1027E000FEF77EFADBE702B080BD000080B582B064
:1027F000FFE741F21800C4F2010000680021C006A2
:102800000028009108D4FFE7FEF75EFA00210728B0
:1028100038BF01210091FFE70098C00700280CD0C5
:10282000FFE741F20000C4F2010000688DF80700E4
:102830009DF80700FEF7B6F9DBE702B080BD0000A7
:1028400080B582B0FFE74CF21800C4F200000068C7
:10285000002180060028009107D4FFE7FFF706FC5F
:10286000002818BF01200090FFE70098C00700284B
:102870000CD0FFE70DF10700FFF7CEFB9DF8071026
:102880004CF20002C4F200021160DCE702B080BD2D
:1028900080B582B0FFE741F21800C4F20100006881
:1028A000002180060028009107D4FFE7FFF7A8FB6E
:1028B000002818BF01200090FFE70098C0070028FB
:1028C0000CD0FFE70DF10700FFF730FB9DF8071074
:1028D00041F20002C4F201021160DCE702B080BDE7
:1028E000FFE748F20C00C4F200000068C0060028B0
:1028F00001D5FFE7F5E744F22000C4F2000008210B
:102900000160704780B582B00190009140F2DC40D8
:10291000C2F20000052101600198009900F0F0FE6C
:1029200000200E21FEF7FEFE4FF22110C0F2000043
:10293000FEF7E4FE02B080BD80B586B0059004913C
:1029400040F2DC40C2F2000004210160FFF7D6FD36
:1029500068468021016044F6A022C0F200020020F7
:1029600003900291029BFEF7F5F9049800F0A2F89B
:10297000059800F00DF80E210398FEF7D3FE4FF2F4
:102980002110C0F20000FEF7B9FE06B080BD0000C5
:1029900080B588B007900798013801460B2806914A
:1029A00000F285800699DFE801F006101A252F391C
:1029B000444E58636D7768461F21016040204221D4
:1029C0004A222A23FEF78EFD71E068461F2101602E
:1029D0004020422155223523FEF784FD67E06846FA
:1029E0001F2101604221602240200590059BFEF7D7
:1029F00079FD5CE068461F2101604020422155229C
:102A00004B23FEF76FFD52E068461F210160402016
:102A100042214A225523FEF765FD48E068461F2102
:102A200001604221402060230490049AFEF75AFD81
:102A30003DE068461F210160402042213422552399
:102A4000FEF750FD33E068461F210160402042211F
:102A500029224B23FEF746FD29E068461F2101602D
:102A60004221202240200390039BFEF73BFD1EE005
:102A700068461F2101604020422129223523FEF7AC
:102A800031FD14E068461F210160402042213422BC
:102A90002A23FEF727FD0AE068461F210160422134
:102AA000402020230290029AFEF71CFDFFE708B0A9
:102AB00080BD000080B58AB0099009983B28089035
:102AC00000F2D9820899DFE811F03C004800540078
:102AD0005F006A00760081008C009700A200AD00C4
:102AE000B800C300CE00D900E400F000FB000601EE
:102AF00011011C01270132013D01480153015E0112
:102B0000690174017F018A019601A101AC01B7013D
:102B1000C201CD01D801E301EE01F90104020F0267
:102B20001A02250230023C02470252025D0268028C
:102B300073027E02890294029F02AA02B502C002B9
:102B4000CB0268464FF47841016042213E200C23BD
:102B50000790079AFEF7C6FC8DE268464FF478416D
:102B600001603E2042210E230691069AFEF7BAFC30
:102B700081E268464FF478410160402042214622BC
:102B80001023FEF7AFFC76E268464FF4784101600F
:102B9000402042214B221223FEF7A4FC6BE2684640
:102BA0004FF478410160402050221423059005998C
:102BB000FEF798FC5FE268464FF4784101604020E0
:102BC000422155221523FEF78DFC54E268464FF44E
:102BD000784101604020422159221823FEF782FCEF
:102BE00049E268464FF478410160402042215D226D
:102BF0001B23FEF777FC3EE268464FF47841016004
:102C00004020422161221E23FEF76CFC33E268461D
:102C10004FF4784101604020422165222123FEF7D4
:102C200061FC28E268464FF478410160402042216F
:102C30006A222423FEF756FC1DE268464FF47841D1
:102C40000160402042216C222923FEF74BFC12E256
:102C500068464FF478410160402042216E222E23C5
:102C6000FEF740FC07E268464FF4784101604020DF
:102C7000422170223423FEF735FCFCE168464FF414
:102C8000784101604020422172223A23FEF72AFC5B
:102C9000F1E168464FF478410160742240200490CD
:102CA0000499049BFEF71EFCE5E168464FF4784169
:102CB00001604020422172224423FEF713FCDAE136
:102CC00068464FF478410160402042217022482339
:102CD000FEF708FCCFE168464FF4784101604020E0
:102CE00042216E224D23FEF7FDFBC4E168464FF4FE
:102CF00078410160402042216C225223FEF7F2FB12
:102D0000B9E168464FF478410160402042216A22CF
:102D10005723FEF7E7FBAEE168464FF478410160C8
:102D20004020422166225A23FEF7DCFBA3E16846DD
:102D30004FF4784101604020422162225D23FEF77A
:102D4000D1FB98E168464FF4784101604020422170
:102D50005E226023FEF7C6FB8DE168464FF47841A2
:102D60000160402042215A226423FEF7BBFB82E12E
:102D700068464FF478410160402042215522682383
:102D8000FEF7B0FB77E168464FF4784101604020E0
:102D9000422151226A23FEF7A5FB6CE168464FF4FD
:102DA00078410160402042214D226C23FEF79AFBBE
:102DB00061E168464FF47841016040204221482299
:102DC0006E23FEF78FFB56E168464FF478410160B1
:102DD0004020422143227123FEF784FB4BE16846E9
:102DE0004FF47841016042213E2074230390039AFE
:102DF000FEF778FB3FE168464FF4784101604020E0
:102E000042213A227223FEF76DFB34E168464FF40B
:102E1000784101604020422136227023FEF762FB98
:102E200029E168464FF47841016040204221322276
:102E30006E23FEF757FB1EE168464FF478410160B0
:102E4000402042212D226C23FEF74CFB13E1684603
:102E50004FF4784101604020422128226A23FEF786
:102E600041FB08E168464FF478410160402042216F
:102E700025226723FEF736FBFDE068464FF47841D4
:102E800001604020422121226323FEF72BFBF2E068
:102E900068464FF478410160402042211D225F23A3
:102EA000FEF720FBE7E068464FF4784101604020E0
:102EB000422119225B23FEF715FBDCE068464FF444
:102EC000784101604020422115225723FEF70AFB7A
:102ED000D1E068464FF4784101604020422114223D
:102EE0005323FEF7FFFAC6E068464FF478410160CD
:102EF0004020422112224F23FEF7F4FABBE068463D
:102F00004FF4784101604020422110224A23FEF70D
:102F1000E9FAB0E068464FF4784101604020422170
:102F20000E224523FEF7DEFAA5E068464FF478410D
:102F300001600C22402002900299029BFEF7D2FA17
:102F400099E068464FF478410160402042210D220B
:102F50003C23FEF7C7FA8EE068464FF478410160E3
:102F6000402042210F223823FEF7BCFA83E0684656
:102F70004FF4784101604020422111223423FEF7B2
:102F8000B1FA78E068464FF4784101604020422170
:102F900013223023FEF7A6FA6DE068464FF478411D
:102FA00001604020422115222B23FEF79BFA62E0AC
:102FB00068464FF4784101604020422118222723BF
:102FC000FEF790FA57E068464FF4784101604020E0
:102FD00042211B222323FEF785FA4CE068464FF47A
:102FE00078410160402042211E221F23FEF77AFA19
:102FF00041E068464FF4784101604020422121229F
:103000001A23FEF76FFA36E068464FF47841016004
:103010004020422124221523FEF764FA2BE0684663
:103020004FF4784101604020422129221423FEF709
:1030300059FA20E068464FF478410160402042216F
:103040002E221223FEF74EFA15E068464FF478411F
:1030500001604020422133221023FEF743FA0AE0A8
:1030600068464FF4784101604020422138220E2307
:10307000FEF738FAFFE70AB080BD000040F2D0400A
:10308000C2F200000068704740F2C440C2F2000083
:103090000068704740F2C840C2F200000068704704
:1030A00040F22050C2F20000006840F2CC41C2F26F
:1030B00000010968642200FB0210704740F2DC4006
:1030C000C2F200000068704740F22050C2F20000D7
:1030D0000068704740F22450C2F200000068704758
:1030E00040F2CC40C2F2000001680131016000688A
:1030F0003C2814D1FFE740F2CC40C2F2000000218E
:10310000016040F2A800C2F20000016801310160D4
:1031100040F22450C2F2000001210160FFE740F2BA
:10312000A800C2F2000000683C281ED1FFE740F270
:10313000A800C2F200000021016040F2A400C2F227
:10314000000000680C2807D1FFE740F2A400C2F29B
:1031500000000121016007E040F2A400C2F200007B
:10316000016801310160FFE7FFE740F2A400C2F20D
:103170000000006840F2A801C2F200010968642260
:1031800000FB021040F22051C2F2000108607047BB
:1031900080B58CB000200B90FDF786F804200990D4
:1031A000FDF7A2FCFDF7ECFAFDF78CFBFDF7A8FBA1
:1031B00041F61D00C0F2000041F67501C0F20001A9
:1031C000FEF794FBFDF77CFCFEF770FE40F29940A1
:1031D000C0F2000046F60021C0F21801099AFEF77D
:1031E00015FE41F25D70C0F200004BF20041C0F2EA
:1031F000C4410122FEF7ACFDFDF758F8FFE7FFF7E9
:103200005DFF0A90FFF756F900284ED0FFE70A98B5
:10321000002803D1FFE700F0B5F841E00A98042840
:103220001CD1FFE7FFF750FF48F21F51C5F2EB1129
:1032300050FB01F0421102EBD07008910790FFF7AC
:1032400043FF089950FB01F2531103EBD272642340
:1032500002FB13010798FFF76FFB20E00A9805288F
:103260001CD1FFE7FFF730FF48F21F51C5F2EB1109
:1032700050FB01F0421102EBD07006910590FFF770
:1032800023FF069950FB01F2531103EBD272642322
:1032900002FB13010598FFF735FBFFE7FFE7FFE7A8
:1032A000FEF7ACFA00F0F2FDFFE70A98002805D11E
:1032B000FFE700F067F800F0E9FD62E00A980128F6
:1032C00004D1FFE70A98FEF7F3FF59E00A980228B5
:1032D00004D1FFE70A98FEF7EBFF50E00A980328B5
:1032E00006D1FFE700F0C8FD002000F095FD45E0A5
:1032F0000A9804281ED1FFE7FFF7E6FE48F21F51A7
:10330000C5F2EB1150FB01F0421102EBD0700491B9
:103310000390FFF7D9FE049950FB01F2531103EB20
:10332000D272642302FB13010398FFF705FB00F040
:10333000D7FD22E00A9805281ED1FFE7FFF7C4FE5B
:1033400048F21F51C5F2EB1150FB01F0421102EBA4
:10335000D07002910190FFF7B7FE029950FB01F285
:10336000531103EBD272642302FB13010198FFF7A0
:10337000C9FA00F0B5FDFFE7FFE7FFE7FFE7FFE76A
:10338000FFE73CE780B588B040F2DC40C2F20000C5
:1033900000210160FFF7B2F8022003210790FEF739
:1033A000C1F94FF20510C0F20000FEF7A7F90521A0
:1033B0000798FEF7B7F94FF24610C0F20000FEF78B
:1033C0009DF907210798FEF7ADF94FF23610C0F2CC
:1033D0000000FEF793F909210798FEF7A3F94FF2D1
:1033E0001110C0F20000FEF789F901200E21FEF74E
:1033F00099F94FF25310C0F20000FEF77FF9FFF782
:103400003DFE00280FD0FFE768461421016044F21A
:10341000B862C0F200023620802306911946069B4E
:10342000FDF798FCFFE740F2C840C2F200000068D8
:10343000013801460328059140D80599DFE801F0DD
:103440000211202F68460A21016044F6D812C0F20A
:1034500000027320252304911946049BFDF77AFC92
:103460002CE068460A21016044F6D812C0F200023E
:103470007320392303911946039BFDF76BFC1DE074
:1034800068460A21016044F6D812C0F20002732097
:103490004D2302911946029BFDF75CFC0EE0684645
:1034A0000A21016044F6D812C0F2000273206123A1
:1034B00001911946019BFDF74DFCFFE708B080BD67
:1034C00070B58EB0DDF848C09E4614460D460646DF
:1034D000ADF83600ADF83410ADF83220ADF830302C
:1034E000ADF82EC000200A90BDF83210BDF836208D
:1034F000891A0991BDF83010BDF83420891A089155
:1035000007900898CDF814E0049403950296FCF710
:10351000D9FE0999C1EB40000A90BDF8340007902C
:10352000BDF836000690FFE70698BDF832108842D5
:1035300053DAFFE70998FCF7C5FE089901900846A1
:10354000FCF7C0FE0199814212DDFFE7BDF91800CA
:10355000BDF91C10BDF82E20FDF712FEBDF91800B4
:1035600007990131BDF82E2009B2FDF709FE11E0DF
:10357000BDF91800BDF91C10BDF82E20FDF700FEA6
:1035800006980130BDF91C10BDF82E2000B2FDF7E1
:10359000F7FDFFE70A98012813DBFFE70898B0F171
:1035A000FF3F04DCFFE707980138079003E0079826
:1035B00001300790FFE709980A99A1EB40000A90B3
:1035C000FFE70898FCF77EFE0A9901EB40000A909D
:1035D000FFE7069801300690A6E70EB070BD000028
:1035E00070B58EB0DDF848C09E4614460D460646BE
:1035F000ADF83600ADF83410ADF83220ADF830300B
:10360000ADF82EC000200A90BDF83210BDF836206B
:10361000891A0991BDF83010BDF83420891A089133
:1036200007900998CDF814E0049403950296FCF7EE
:1036300049FE0899C1EB40000A90BDF8360007909A
:10364000BDF834000690FFE70698BDF830108842B8
:1036500053DAFFE70998FCF735FE08990190084610
:10366000FCF730FE0199814212DDFFE7BDF91C0035
:10367000BDF91810BDF82E20FDF782FDBDF91C0024
:1036800006990131BDF82E2009B2FDF779FD11E050
:10369000BDF91C00BDF91810BDF82E20FDF770FD16
:1036A00007980130BDF91810BDF82E2000B2FDF7C3
:1036B00067FDFFE70A98012813DBFFE70998B0F1DF
:1036C000FF3F04DCFFE707980138079003E0079805
:1036D00001300790FFE708980A99A1EB40000A9093
:1036E000FFE70998FCF7EEFD0A9901EB40000A900C
:1036F000FFE7069801300690A6E70EB070BD000007
:1037000080B5ACB02B902A91FEF7F8FE2B980138CB
:1037100001460B28299100F28F812999DFE811F0E9
:103720000C002C004C006C008C00AC00CC00EC00B9
:103730000C012C014C016C016846202101604FF600
:103740007832C0F20002132060234FF0140C28914D
:10375000194627936346CDF898C0FDF7FBFA6846F3
:10376000289901604EF2E812C0F200022720279942
:10377000269BFDF7EFFA5FE16846202101604FF6D6
:103780007832C0F20002132060234FF0140C259110
:10379000194624936346CDF88CC0FDF7DBFA6846E2
:1037A000259901604FF27862C0F200022720249927
:1037B000239BFDF7CFFA3FE16846202101604FF6D9
:1037C0007832C0F20002132060234FF0140C2291D3
:1037D000194621936346CDF880C0FDF7BBFA6846D1
:1037E000229901604FF27812C0F20002272021993D
:1037F000209BFDF7AFFA1FE16846202101604FF6DC
:103800007832C0F20002132060234FF0140C1F9195
:1038100019461E936346CDF874C0FDF79BFA6846BF
:103820001F9901604DF2E872C0F2000227201E9934
:103830001D9BFDF78FFAFFE06846202101604FF6DF
:103840007832C0F20002132060234FF0140C1C9158
:1038500019461B936346CDF868C0FDF77BFA6846AE
:103860001C9901604DF2E822C0F2000227201B994A
:103870001A9BFDF76FFADFE06846202101604FF6E2
:103880007832C0F20002132060234FF0140C19911B
:10389000194618936346CDF85CC0FDF75BFA68469D
:1038A000199901604EF6E832C0F2000227201899FB
:1038B000179BFDF74FFABFE06846202101604FF6E5
:1038C0007832C0F20002132060234FF0140C1691DE
:1038D000194615936346CDF850C0FDF73BFA68468C
:1038E000169901604EF2E862C0F200022720159995
:1038F000149BFDF72FFA9FE06846202101604FF6E8
:103900007832C0F20002132060234FF0140C1391A0
:10391000194612936346CDF844C0FDF71BFA68467A
:10392000139901604CF6E852C0F200022720129968
:10393000119BFDF70FFA7FE06846202101604FF6EA
:103940007832C0F20002132060234FF0140C109163
:1039500019460F936346CDF838C0FDF7FBF968466A
:10396000109901604DF6E842C0F2000227200F993D
:103970000E9BFDF7EFF95FE06846202101604EF2F3
:10398000E812C0F20002132060234FF0140C0D91D6
:1039900019460C936346CDF82CC0FDF7DBF9684659
:1039A0000D9901604FF67832C0F2000227200C9981
:1039B0000B9BFDF7CFF93FE06846202101604EF2F6
:1039C000E810C0F20000132260234FF0140C0A909C
:1039D0001046099119460A9A08936346CDF81CC00F
:1039E000FDF7B8F9684609990160272008990A9AF5
:1039F000079BFDF7AFF91FE06846202101604EF2FA
:103A0000E812C0F20002132060234FF0140C06915C
:103A1000194605936346CDF810C0FDF79BF968463B
:103A2000069901604FF27862C0F2000227200599E2
:103A3000049BFDF78FF9FFE76846202101604CF6F3
:103A4000A022C0F200023B2060210A23FDF782F988
:103A50002A9846F26761C6F2666150FB01F0811058
:103A600001EBD07001460928039100F28A80039986
:103A7000DFE801F07A05121F2C394653606D684665
:103A8000202101604EF2E812C0F2000245206021C0
:103A90001423FDF75FF974E06846202101604FF2BE
:103AA0007862C0F20002452060211423FDF752F92C
:103AB00067E06846202101604FF27812C0F20002F0
:103AC000452060211423FDF745F95AE0684620217E
:103AD00001604DF2E872C0F200024520602114231B
:103AE000FDF738F94DE06846202101604DF2E822EB
:103AF000C0F20002452060211423FDF72BF940E0BD
:103B00006846202101604EF6E832C0F200024520EE
:103B100060211423FDF71EF933E06846202101607F
:103B20004EF2E862C0F20002452060211423FDF746
:103B300011F926E06846202101604CF6E852C0F2F7
:103B40000002452060211423FDF704F919E06846BE
:103B5000202101604DF6E842C0F2000245206021BC
:103B60001423FDF7F7F80CE06846202101604FF6BA
:103B70007832C0F20002452060211423FDF7EAF8F4
:103B8000FFE72A9846F26761C6F2666150FB01F1D1
:103B90008A1002EBD17101EB8101A0EB41000146DB
:103BA0000928029100F28A800299DFE801F07A0583
:103BB000121F2C394653606D6846202101604EF279
:103BC000E812C0F20002592060211423FDF7C2F868
:103BD00074E06846202101604FF27862C0F2000272
:103BE000592060211423FDF7B5F867E068462021CD
:103BF00001604FF27812C0F20002592060211423B4
:103C0000FDF7A8F85AE06846202101604DF2E872FD
:103C1000C0F20002592060211423FDF79BF84DE00B
:103C20006846202101604DF2E822C0F200025920CE
:103C300060211423FDF78EF840E0684620210160E2
:103C40004EF6E832C0F20002592060211423FDF73D
:103C500081F833E06846202101604EF2E862C0F24C
:103C60000002592060211423FDF774F826E068460D
:103C7000202101604CF6E852C0F200025920602178
:103C80001423FDF767F819E06846202101604DF61E
:103C9000E842C0F20002592060211423FDF75AF8CF
:103CA0000CE06846202101604FF67832C0F2000235
:103CB000592060211423FDF74DF8FFE72CB080BD9B
:103CC00080B582B00146ADF806009DF8070000916E
:103CD00000F0C0F99DF8060000F0BCF902B080BD0C
:103CE00040F2C040C2F200000021016070470000B5
:103CF00080B543F2E100C0F200004BF20041C0F297
:103D0000C4410022FDF7B0FE80BD000040F2245007
:103D1000C2F200000021016070470000B0B588B019
:103D20009C4696460C4605468DF81F008DF81E10E1
:103D30008DF81D208DF81C302A20CDF818C0CDF844
:103D400014E00494039500F057F90020029000F06D
:103D500081F99DF81F0040F2A001C2F200010A782B
:103D60001044C0B2019100F075F9029800F072F9A8
:103D70009DF81D0001990A781044C0B200F06AF95C
:103D80002B2000F039F9029800F064F99DF81E002C
:103D900040F2BC01C2F200010A781044C0B20091A6
:103DA00000F058F9029800F055F99DF81C000099B0
:103DB0000A781044C0B200F04DF92C2000F01CF934
:103DC00008B0B0BD82B001900091019800996422C2
:103DD00000FB021040F2C441C2F20001086002B0D0
:103DE0007047000081B00090009840F2C841C2F2D4
:103DF0000001086001B0704740F26030C2F200007C
:103E0000012101607047000040F26430C2F20000FE
:103E1000012101607047000081B00090009840F2DD
:103E2000DC41C2F20001086001B0704780B582B089
:103E300001900091FDF76AFE019840F2A401C2F2E0
:103E400000010860009840F2A801C2F20001086079
:103E500040F2CC40C2F200000021016001980099BC
:103E6000642200FB021040F22051C2F200010860FF
:103E7000FFF73EFF02B080BD40F2D040C2F200002A
:103E80000168B1FA81F149090160704781B0FFE72B
:103E900040F26030C2F2000000680021002800916A
:103EA0000AD1FFE740F26430C2F200000068B0FAC5
:103EB00080F040090090FFE70098C007002801D07B
:103EC000FFE7E5E740F26430C2F200000021016044
:103ED00040F26030C2F20000016001B070470000A3
:103EE00080B582B0FFF7F6F80190FFE740F260304E
:103EF000C2F2000000680021002800910AD1FFE70B
:103F000040F26430C2F200000068B0FA80F040096C
:103F10000090FFE70098C007002809D0FFE7FFF7EF
:103F2000D9F801900198012801D1FFE700E0DDE711
:103F3000FFF7ECFE40F26430C2F2000000210160A5
:103F400040F26030C2F20000016002B080BD0000AB
:103F500085B0039002910192FFE740F26030C2F217
:103F6000000000680021002800910AD1FFE740F21C
:103F70006430C2F200000068B0FA80F0400900909E
:103F8000FFE70098C007002801D0FFE7E5E740F20F
:103F90006430C2F200000068002820D0FFE740F241
:103FA0006430C2F2000000210160019800280BD1AA
:103FB000FFE703980C2803D1FFE70120049018E0E5
:103FC00003980130049014E002983B2803D1FFE7E6
:103FD000002004900DE002980130049009E040F2C6
:103FE0006030C2F20000002101604FF0FF30049009
:103FF000FFE7049805B0704781B001468DF80300D3
:10400000FFE748F20C00C4F200000068C006002878
:1040100001D5FFE7F5E744F22000C4F200000021DB
:10402000016044F20010C4F2000001609DF803003A
:1040300048F20801C4F200010860FFE748F20C00F2
:10404000C4F200000068C006002801D5FFE7F5E7CC
:1040500001B0704781B001468DF80300FFE748F2D8
:104060000C00C4F2000000688007002801D4FFE7BC
:10407000F5E744F20010C4F20000402101609DF811
:10408000030048F20801C4F20001086001B0704763
:10409000004870470400002002E008C8121F08C151
:1040A000002AFAD170477047002001E001C1121FB9
:1040B000002AFBD170470040404040404040404013
:1040C00041414141414040404040404040404040EB
:1040D000404040404040400502020202020202020B
:1040E00002020202020202202020202020202020A2
:1040F0002002020202020202909090909090101012
:1041000010101010101010101010101010101010AF
:104110001010020202020202888888888888080833
:10412000080808080808080808080808080808080F
:104130000808020202024000B74000000000000030
:10414000003E5B4F5B3E3E6B4F6B3E1C3E7C3E1C1D
:10415000183C7E3C181C577D571C1C5E7F5E1C0063
:10416000183C1800FFE7C3E7FF0018241800FFE71A
:10417000DBE7FF30483A060E2629792926407F05DD
:104180000507407F05253F5A3CE73C5A7F3E1C1CF3
:1041900008081C1C3E7F14227F22145F5F005F5FB3
:1041A00006097F017F006689956A6060606060949F
:1041B000A2FFA29408047E040810207E20100808A4
:1041C0002A1C08081C2A08081E101010100C1E0CAF
:1041D0001E0C30383E3830060E3E0E060000000041
:1041E0000000005F00000007000700147F147F1428
:1041F000242A7F2A1223130864623649562050006D
:1042000008070300001C2241000041221C002A1C58
:104210007F1C2A08083E0808008070300008080843
:104220000808000060600020100804023E51494563
:104230003E00427F400072494949462141494D3381
:104240001814127F1027454545393C4A49493141E8
:10425000211109073649494936464949291E0000B6
:10426000140000004034000000081422411414140B
:104270001414004122140802015909063E415D59F7
:104280004E7C1211127C7F494949363E4141412200
:104290007F4141413E7F494949417F090909013E2A
:1042A000414151737F0808087F00417F4100204051
:1042B000413F017F081422417F404040407F021C63
:1042C000027F7F0408107F3E4141413E7F0909097A
:1042D000063E4151215E7F09192946264949493246
:1042E00003017F01033F4040403F1F2040201F3F0C
:1042F0004038403F63140814630304780403615991
:10430000494D43007F4141410204081020004141D2
:10431000417F04020102044040404040000307087E
:104320000020545478407F2844443838444444287A
:10433000384444287F385454541800087E09021821
:10434000A4A49C787F0804047800447D40002040A9
:10435000403D007F1028440000417F40007C0478ED
:1043600004787C080404783844444438FC18242435
:104370001818242418FC7C080404084854545424B5
:1043800004043F44243C4040207C1C2040201C3C32
:104390004030403C44281028444C9090907C446429
:1043A000544C4400083641000000770000004136BC
:1043B000080002010204023C2623263C1EA1A16142
:1043C000123A4040207A3854545559215555794174
:1043D0002154547841215554784020545579400C4B
:1043E0001E5272123955555559395454545939552C
:1043F0005454580000457C410002457D420001456F
:104400007C40F0292429F0F0282528F07C545545DB
:10441000002054547C547C0A097F4932494949326E
:104420003248484832324A4848303A4141217A3A83
:1044300042402078009DA0A07D39444444393D404D
:1044400040403D3C24FF2424487E4943662B2FFCFA
:104450002F2BFF0929F620C0887E090320545479A8
:10446000410000447D413048484A32384040227A79
:10447000007A0A0A727D0D19317D2629292F2826F6
:104480002929292630484D402038080808080808FE
:104490000808382F10C8ACBA2F102834FA00007B57
:1044A000000008142A142222142A1408AA00550015
:1044B000AAAA55AA55AA000000FF00101010FF007C
:1044C000141414FF001010FF00FF1010F010F0146F
:1044D0001414FC001414F700FF0000FF00FF141474
:1044E000F404FC141417101F10101F101F141414C0
:1044F0001F00101010F0000000001F101010101FFF
:1045000010101010F010000000FF1010101010100C
:10451000101010FF10000000FF140000FF00FF004B
:10452000001F10170000FC04F414141710171414C3
:10453000F404F40000FF00F714141414141414F716
:1045400000F7141414171410101F101F141414F46F
:10455000141010F010F000001F101F0000001F14B6
:10456000000000FC140000F010F01010FF10FF1409
:104570001414FF141010101F00000000F010FFFFB3
:10458000FFFFFFF0F0F0F0F0FFFFFF000000000081
:10459000FFFF0F0F0F0F0F38444438447C2A2A3E88
:1045A000147E02020606027E027E026355494163C2
:1045B0003844443C04407E201E2006027E020299BC
:1045C000A5E7A5991C2A492A1C4C7201724C304A55
:1045D0004D4D303048784830BC625A463D3E4949DE
:1045E00049007E0101017E2A2A2A2A2A44445F4486
:1045F0004440514A444040444A51400000FF0103B6
:10460000E080FF000008086B6B083612362436067F
:104610000F090F06000018180000001010003040AD
:10462000FF0101001F01011E00191D1712003C3C73
:104630003C3C00000000000F0180961180FFB10398
:10464000012C2DB203012C2DB306012C2D012C2D94
:10465000B40107C003A20284C101C5C2020A00C39B
:10466000028A2AC4028AEEC5010E20003601C83A29
:104670000105022A04000200812B04000100A002AF
:104680002A040000007F2B040000009F04E01002B9
:104690001C07123732292D29252B3900010310E17F
:1046A00010031D07062E2C292D2E2E373F00000249
:1046B0001013800A29806400000000000000000040
:1046C00000000000000000000000000000000000EA
:1046D00000000000000000000000000000000000DA
:1046E00000000000000000000000000000000000CA
:1046F00000000000000000000000000000000000BA
:1047000000000000000000000000000000000000A9
:104710000000000000000000000000000000000099
:104720000000000000000000000000000000000089
:10473000000000000000000000002000E701000071
:1047400000004501450100000000E70120000000D5
:104750000000000000000000000000000000000059
:1047600000000000FF07FD06FF07FF07FF07FF0728
:10477000FD06FF0700000000000000000000000030
:1047800000000000000000000000E701FF07D8055E
:104790000401000000000401D805FF07E701000044
:1047A0000000000000000000000000000000000009
:1047B0008200FF074E030000000000000000000020
:1047C00000004E03FF078200000000000000000010
:1047D00000000000000000005A06F905000000007B
:1047E000000000000000210000000000F9057A062A
:1047F00000000000000000000000000000000000B9
:10480000FF07040100000000000000008A02FF070B
:10481000210000000401FF0700000000000000006C
:104820000000000000004501FF070000000000003C
:1048300000008A02FF078A02000000000000FF0754
:1048400045010000000000000000000000004501DC
:10485000FF0700000000000000009705560500005B
:10486000000000000000FF074501000000000000FC
:104870000000000000000000FF070401000000002D
:104880000000560556050000000000000401FF0767
:104890000000000000000000000000000000000018
:1048A0007A06F90500000000000076057605000094
:1048B00000000000F9057A0600000000000000007A
:1048C00000000000000000002000FF074E03000071
:1048D000000031043104000000004E03FF072000F7
:1048E0000000000000000000000000000000FF07C2
:1048F000E7014501FF07F90504010000000004017C
:10490000F905FF074501E701FF070000000000006F
:10491000000000000000FF07FF07E70120007A0603
:10492000FF07FF07FF07FF077A062000E701FF07E1
:10493000FF07000000000000000000000000A701C9
:10494000FF07FF07000000000000450145010000CF
:1049500000000000FF07FF07A701000000000000A3
:104960000000000000000000000000000000000047
:104970000000000000000000000000000000000037
:104980000000000000000000000000000000000027
:104990000000000000000000000000000000000017
:1049A0000000000000000000000000000000000007
:1049B00000000000000000000000000000000000F7
:1049C00000000000000000000000000000000000E7
:1049D00000000000000000000000000000000000D7
:1049E00000000000000000000000000000000000C7
:1049F00000000000000000009F0700000000000011
:104A0000000000000000000000009F079F0700005A
:104A10000000000000000000000000009F079F074A
:104A20009F070000000000000000000000009F073A
:104A30009F079F079F070000000000000000000084
:104A400000009F079F079F079F07000000000000CE
:104A500000000000000000009F079F079F07000064
:104A600000000000000000000000000000009F07A0
:104A70009F07000000000000000000000000000090
:104A8000000000009F070000000000000000000080
:104A90000000000000000000000000000000000016
:104AA0000000000000000000000000000000000006
:104AB00000000000000000000000000000000000F6
:104AC00000000000000000000000000000000000E6
:104AD0000000000000000421452945294108410843
:104AE00000000000000000000000000000000000C6
:104AF00000000000000000000000000000000000B6
:104B0000000000000000000000000000000061083C
:104B10006108108475AD75AD610861086108518C3C
:104B2000518CFFFF4D6B4D6B00000000000000003A
:104B30000000000000000000000000000000000075
:104B4000000000000000000000000000E318E3186F
:104B5000FFFFFFFFFFFF9AD69AD675AD75ADC3185C
:104B60000000000000000000000000000000000045
:104B70000000000000000000000000000000000035
:104B80000000000000000000000000000000000025
:104B90000000000000000000000000000000000015
:104BA0000000000000000000000000000000000005
:104BB00000000000000000000000000000000000F5
:104BC00000000000000000000000000000000000E5
:104BD0000000000000000421452945294108410842
:104BE00000000000000000000000000000000000C5
:104BF00000000000000000000000000000000000B5
:104C0000000000000000000000000000000061083B
:104C10006108108475AD75AD610861086108518C3B
:104C2000518CFFFF4D6B4D6B000000000000000039
:104C30000000000000000000000000000000000074
:104C4000000000000000000000000000E318E3186E
:104C5000FFFFFFFFFFFF9AD69AD675AD75ADC3185B
:104C60000000000000000000000000000000000044
:104C70000000000000000000000000000000000034
:104C80000000000000000000000000000000000024
:104C90000000000000000000000000000000000014
:104CA0000000000000000000000000000000000004
:104CB00000000000000000000000000000000000F4
:104CC00000000000000000000000000000000000E4
:104CD00000000000000030849EF79EF7694A694A90
:104CE00000000000000000000000000000000000C4
:104CF00000000000000000000000000000000000B4
:104D000000000000000000000000000000008A52C7
:104D10008A52FFFFF39CF39C000000000000EF7B31
:104D2000EF7BFFFF6D6B6D6B00000000000000006B
:104D30000000000000000000000000000000000073
:104D4000000000000000000000000000A210A210FF
:104D5000BAD6BAD6D7BD20002000494A494A9AD6C9
:104D600004210421000000000000000000000000F9
:104D70000000000000000000000000000000000033
:104D80000000000000000000000000000000000023
:104D90000000000000000000000000000000000013
:104DA0000000000000000000000000000000000003
:104DB00000000000000000000000000000000000F3
:104DC00000000000000000000000000000000000E3
:104DD00000000000000030849EF79EF7694A694A8F
:104DE00000000000000000000000000000000000C3
:104DF00000000000000000000000000000000000B3
:104E000000000000000000000000000000008A52C6
:104E10008A52FFFFF39CF39C000000000000EF7B30
:104E2000EF7BFFFF6D6B6D6B00000000000000006A
:104E30000000000000000000000000000000000072
:104E4000000000000000000000000000A210A210FE
:104E5000BAD6BAD6D7BD20002000494A494A9AD6C8
:104E600004210421000000000000000000000000F8
:104E70000000000000000000000000000000000032
:104E80000000000000000000000000000000000022
:104E90000000000000000000000000000000000012
:104EA0000000000000000000000000000000000002
:104EB00000000000000000000000000000000000F2
:104EC00000000000000000000000000000000000E2
:104ED0000000000000000000F7BDF7BDEB5AEB5AE0
:104EE00000000000000000000000000000000000C2
:104EF00000000000000000000000000000000000B2
:104F000000000000000000000000000000008A52C5
:104F10008A52FFFFF39CF39C000000000000CF7B4F
:104F2000CF7BFFFF8E738E73000000000000000037
:104F30000000000000000000000000000000000071
:104F40000000000000000000000000000000000061
:104F50000000000000000000000065296529FFFF37
:104F6000D7BDD7BD00000000000000000000000019
:104F70000000000000000000000000000000000031
:104F80000000000000000000000000000000000021
:104F90000000000000000000000000000000000011
:104FA0000000000000000000000000000000000001
:104FB00000000000000000000000000000000000F1
:104FC00000000000000000000000000000000000E1
:104FD0000000000000000000F7BDF7BDEB5AEB5ADF
:104FE00000000000000000000000000000000000C1
:104FF00000000000000000000000000000000000B1
:1050000000000000000000000000000000008A52C4
:105010008A52FFFFF39CF39C000000000000CF7B4E
:10502000CF7BFFFF8E738E73000000000000000036
:105030000000000000000000000000000000000070
:105040000000000000000000000000000000000060
:105050000000000000000000000065296529FFFF36
:10506000D7BDD7BD00000000000000000000000018
:105070000000000000000000000000000000000030
:105080000000000000000000000000000000000020
:105090000000000000000000000000000000000010
:1050A0000000000000000000000000000000000000
:1050B00000000000000000000000000000000000F0
:1050C00000000000000000000000000000000000E0
:1050D000000000000000000038C638C6AA52AA52DC
:1050E00000000000000000000000000000000000C0
:1050F00000000000000000000000000000000000B0
:105100000000000000000000000000000000AA52A3
:10511000AA52FFFFB294B294C318C318694A75AD7E
:1051200075AD3CE78A528A52000000000000000082
:10513000000000000000000000000000000000006F
:10514000000000000000000000000000000000005F
:1051500020002000C739E739E7394D6B4D6BFFFF61
:1051600018C618C600000000000000000000000083
:10517000000000000000000000000000000000002F
:10518000000000000000000000000000000000001F
:10519000000000000000000000000000000000000F
:1051A00000000000000000000000000000000000FF
:1051B00000000000000000000000000000000000EF
:1051C00000000000000000000000000000000000DF
:1051D0000000000000000000518C518CAE73AE73D3
:1051E000A21000000000000000000000000000000D
:1051F00000000000000000000000000000000000AF
:105200000000000000000000000000000000C7399E
:10521000C739DBDE718C718CC739C73938C6F7BD29
:10522000F7BD8A52000000000000000000000000EE
:10523000000000000000000000000000000000006E
:10524000000000000000000000000000000000005E
:1052500004210421FFFFFFFFFFFFFFFFFFFFDFFF30
:1052600030843084000000000000000000000000D6
:10527000000000000000000000000000000000002E
:10528000000000000000000000000000000000001E
:10529000000000000000000000000000000000000E
:1052A00000000000000000000000000000000000FE
:1052B00000000000000000000000000000000000EE
:1052C00000000000000000000000000000000000DE
:1052D0000000000000000000518C518CAE73AE73D2
:1052E000A21000000000000000000000000000000C
:1052F00000000000000000000000000000000000AE
:105300000000000000000000000000000000C7399D
:10531000C739DBDE718C718CC739C73938C6F7BD28
:10532000F7BD8A52000000000000000000000000ED
:10533000000000000000000000000000000000006D
:10534000000000000000000000000000000000005D
:1053500004210421FFFFFFFFFFFFFFFFFFFFDFFF2F
:1053600030843084000000000000000000000000D5
:10537000000000000000000000000000000000002D
:10538000000000000000000000000000000000001D
:10539000000000000000000000000000000000000D
:1053A00000000000000000000000000000000000FD
:1053B00000000000000000000000000000000000ED
:1053C00000000000000000000000000000000000DD
:1053D00000000000000000000000000038C638C6D1
:1053E000CB5A000000000000000000000000000098
:1053F00000000000000000000000000000000000AD
:10540000000000000000000000000000000000009C
:1054100000002C63BAD6BAD6042104210000000093
:10542000000000000000000000000000000000007C
:10543000000000000000000000000000000000006C
:10544000000000000000000000000000000000005C
:10545000242124219EF796B596B596B596B510846D
:10546000000000000000000000000000000000003C
:10547000000000000000000000000000000000002C
:10548000000000000000000000000000000000001C
:10549000000000000000000000000000000000000C
:1054A00000000000000000000000000000000000FC
:1054B00000000000000000000000000000000000EC
:1054C00000000000000000000000000000000000DC
:1054D00000000000000000000000000038C638C6D0
:1054E000CB5A000000000000000000000000000097
:1054F00000000000000000000000000000000000AC
:10550000000000000000000000000000000000009B
:1055100000002C63BAD6BAD6042104210000000092
:10552000000000000000000000000000000000007B
:10553000000000000000000000000000000000006B
:10554000000000000000000000000000000000005B
:10555000242124219EF796B596B596B596B510846C
:10556000000000000000000000000000000000003B
:10557000000000000000000000000000000000002B
:10558000000000000000000000000000000000001B
:10559000000000000000000000000000000000000B
:1055A00000000000000000000000000000000000FB
:1055B00000000000000000000000000000000000EB
:1055C00000000000000000000000000000000000DB
:1055D0000000000000000000000000009AD69AD6EB
:1055E000694A000000000000000000000000000008
:1055F00000000000000000000000000000000000AB
:10560000000000000000000000000000000000009A
:105610000000C739BAD6BAD6BAD6BAD665290000BC
:10562000000000000000000000000000000000007A
:10563000000000000000000000000000000000006A
:10564000000000000000000000000000000000005A
:105650008631863179CE0000000000000000000095
:10566000000000000000000000000000000000003A
:10567000000000000000000000000000000000002A
:10568000000000000000000000000000000000001A
:10569000000000000000000000000000000000000A
:1056A00000000000000000000000000000000000FA
:1056B00000000000000000000000000000000000EA
:1056C0000000000000000000000000000000E739BA
:1056D000E739242124210000000000000C630C6342
:1056E000CF7BE318E318000000000000000000007A
:1056F00000000000000000000000000000000000AA
:105700000000000000000000000000000000000099
:10571000000000008631863134A534A5B294AE7302
:10572000AE73AE73863186310000000000000000C9
:105730000000000000000000000000000000000069
:105740000000000000000000000000000000000059
:10575000452945291CE70C630C630C630C63494A1B
:105760000000000000000000000000000000000039
:105770000000000000000000000000000000000029
:105780000000000000000000000000000000000019
:105790000000000000000000000000000000000009
:1057A00000000000000000000000000000000000F9
:1057B00000000000000000000000000000000000E9
:1057C0000000000000000000000000000000E739B9
:1057D000E739242124210000000000000C630C6341
:1057E000CF7BE318E3180000000000000000000079
:1057F00000000000000000000000000000000000A9
:105800000000000000000000000000000000000098
:10581000000000008631863134A534A5B294AE7301
:10582000AE73AE73863186310000000000000000C8
:105830000000000000000000000000000000000068
:105840000000000000000000000000000000000058
:10585000452945291CE70C630C630C630C63494A1A
:105860000000000000000000000000000000000038
:105870000000000000000000000000000000000028
:105880000000000000000000000000000000000018
:105890000000000000000000000000000000000008
:1058A00000000000000000000000000000000000F8
:1058B00000000000000000000000000000000000E8
:1058C000000000000000000000000000000034A5FF
:1058D00034A5D7BDD7BD4D6B4D6B4D6BCB5ACB5A55
:1058E0003CE7494A494A000000000000000000006F
:1058F00000000000000000000000000000000000A8
:105900000000000000000000000000000000000097
:105910000000000000000000000000008641F3AC21
:10592000F3AC55AD494A494A0000000000000000B0
:105930000000000000000000000000000000000067
:105940000000000000000000000000000000000057
:1059500004210421FFFFFFFFFFFFFFFFFFFFFBDE2E
:105960000000000000000000000000000000000037
:105970000000000000000000000000000000000027
:105980000000000000000000000000000000000017
:105990000000000000000000000000000000000007
:1059A00000000000000000000000000000000000F7
:1059B00000000000000000000000000000000000E7
:1059C000000000000000000000000000000034A5FE
:1059D00034A5D7BDD7BD4D6B4D6B4D6BCB5ACB5A54
:1059E0003CE7494A494A000000000000000000006E
:1059F00000000000000000000000000000000000A7
:105A00000000000000000000000000000000000096
:105A10000000000000000000000000008641F3AC20
:105A2000F3AC55AD494A494A0000000000000000AF
:105A30000000000000000000000000000000000066
:105A40000000000000000000000000000000000056
:105A500004210421FFFFFFFFFFFFFFFFFFFFFBDE2D
:105A60000000000000000000000000000000000036
:105A70000000000000000000000000000000000026
:105A80000000000000000000000000000000000016
:105A90000000000000000000000000000000000006
:105AA00000000000000000000000000000000000F6
:105AB00000000000000000000000000000000000E6
:105AC0000000000000000000000000000000D39C67
:105AD000D39CFFFFFFFFFFFFFFFFFFFFFFFFFFFF65
