:020000040000FA
:10000000180400206D02000081020000830200003D
:100010008502000087020000890200000000000045
:100020000000000000000000000000008B02000043
:100030008D020000000000008F020000910200000D
:100040000903000055030000930200009302000022
:10005000930200009302000093020000930200004C
:10006000930200009302000093020000930200003C
:10007000930200009302000093020000930200002C
:100080009302000093020000930200000D040000A0
:100090009302000021040000930200009504000078
:1000A00093020000930200009302000093020000FC
:1000B00093020000930200009302000093020000EC
:1000C0009302000093020000930200002505000047
:1000D00093020000930200009302000093020000CC
:1000E00093020000000000000000000093020000E6
:1000F00093020000930200009302000093020000AC
:10010000930200009302000093020000930200009B
:1001100000000000000000009302000093020000B5
:10012000930200009302000093020000930200007B
:10013000930200009302000093020000930200006B
:1001400000000000000000000000000000000000AF
:1001500093020000930200003905000093020000A2
:10016000000000000000000000000000000000008F
:10017000000000000000000000000000000000007F
:10018000000000000000000000000000000000006F
:10019000000000000000000000000000000000005F
:1001A000000000000000000000000000000000004F
:1001B0004D0500009302000093020000930200002E
:1001C00093020000930200009302000093020000DB
:1001D00093020000930200009302000093020000CB
:1001E0009302000093020000930200000000000050
:1001F0000000000093020000930200009302000040
:1002000093020000930200000000000000000000C4
:10021000930200009302000093020000930200008A
:10022000930200009302000093020000930200007A
:10023000930200009302000093020000930200006A
:10024000930200009302000093020000930200005A
:10025000930200009302000093020000930200004A
:100260009302000093020000930200004EF68850B3
:10027000CEF20000016841F47001016000F00AB89C
:10028000FEE7FEE7FEE7FEE7FEE7FEE7FEE7FEE746
:10029000FEE7FEE7DFF80CD000F014F80048004756
:1002A000610500001804002072B6704762B67047FE
:1002B000EFF3108072B6704780F31088704730BF3C
:1002C00070470000064C074D06E0E06840F001036F
:1002D00094E8070098471034AC42F6D3FFF7DEFFEE
:1002E00098050000A805000076481821A022C160EA
:1002F000016841F0180101607348734600F04EF840
:100300009E4672494250704710B56E4C6068C006F8
:100310000AD52068012120F0100020601020E06044
:100320000A48016000F0D4F809480068C00658BFC8
:1003300010BD2068012120F0080020600820E06046
:1003400002480160BDE8104000F082B800000020C3
:1003500014440240704700000B48016841F020013E
:100360000160D0F800148906FBD508480849094AFD
:100370000E2301611F214161835011220260C1607F
:10038000054900224250704708E60F4010550240D0
:100390004B434F4CF0FEFFFFECFEFFFF016862F3A2
:1003A00017414FF0804201607047000016490A690A
:1003B00042F000420A610A6942F400620A610A6876
:1003C00022F4F8620A600A6802F5A8620A600A6903
:1003D00022F070020A610A690A610A6922F4005275
:1003E0000A610A6942F080420A610A6922F0FE52FB
:1003F00002EB8050086151F8100C4006FBD50869EB
:1004000020F400600861704760E00F40024801215D
:1004100001600248006800472400034004000020F7
:100420000A480121A022C16000210160254808215D
:10043000C160016841F00801016023487346FFF77D
:10044000ADFF9E4621494250FFF74EBF18100340B2
:1004500018B52F48304B01228024016841F0020179
:1004600001600021006800900948C160016042609D
:10047000836281632949426282610B6864F31F636E
:100480004FF400040B60264BCC50C26018BD00BF77
:10049000001003400A480121A022C1600021016030
:1004A00008481021C160016841F010010160064850
:1004B0007346FFF773FF9E4604494250FFF714BF8F
:1004C00018200340104400401CE400E0E4FCFFFF5F
:1004D00018B50F48104B01228024016841F0040137
:1004E00001600021006800900A48C160016042601C
:1004F000836281630949426282610B6864F31F630E
:100500004FF400040B60064BCC50C26018BD00BF16
:1005100004E60F40002003400071020014E400E0F4
:10052000ECFCFFFF0248012101600248006800471F
:1005300024300340080000200248012101600248E5
:1005400000680047244003400C00002002480121BD
:10055000016002480068004724500340100000205A
:1005600080B5FFF7A1FE0420FFF720FFFFF7F4FEA0
:10057000FFF79CFE012080BD02E008C8121F08C1E1
:10058000002AFAD170477047002001E001C1121F14
:10059000002AFBD170470000A805000000000020E1
:0805A0001804000088050000AA
:040000050000029560
:00000001FF
