:020000040000FA
:10000000080400206D02000081020000830200004D
:100010008502000087020000890200000000000045
:100020000000000000000000000000008B02000043
:100030008D020000000000008F020000DD080000BB
:1000400093020000DD06000093020000930200000E
:10005000930200009302000093020000930200004C
:10006000930200009302000093020000930200003C
:10007000930200009302000093020000930200002C
:10008000930200009302000093020000210B000085
:10009000930200009302000093020000930200000C
:1000A00093020000930200009302000093020000FC
:1000B00093020000930200009302000093020000EC
:1000C00093020000930200009302000093020000DC
:1000D00093020000930200009302000093020000CC
:1000E00093020000000000000000000093020000E6
:1000F00093020000930200009302000093020000AC
:10010000930200009302000093020000930200009B
:1001100000000000000000009302000093020000B5
:10012000930200009302000093020000930200007B
:10013000930200009302000093020000930200006B
:1001400000000000000000000000000000000000AF
:10015000930200009302000093020000930200004B
:10016000000000000000000000000000000000008F
:10017000000000000000000000000000000000007F
:10018000000000000000000000000000000000006F
:10019000000000000000000000000000000000005F
:1001A000000000000000000000000000000000004F
:1001B0003D0B000093020000930200009302000038
:1001C00093020000930200009302000093020000DB
:1001D00093020000930200009302000093020000CB
:1001E0009302000093020000930200000000000050
:1001F0000000000093020000930200009302000040
:1002000093020000930200000000000000000000C4
:10021000930200009302000093020000930200008A
:10022000930200009302000093020000930200007A
:10023000930200009302000093020000930200006A
:10024000930200009302000093020000930200005A
:10025000930200009302000093020000930200004A
:100260009302000093020000930200004EF68850B3
:10027000CEF20000016841F47001016000F00AB89C
:10028000FEE7FEE7FEE7FEE7FEE7FEE7FEE7FEE746
:10029000FEE7FEE7DFF80CD000F014F80048004756
:1002A000250D00000804002072B6704762B6704742
:1002B000EFF3108072B6704780F31088704730BF3C
:1002C00070470000064C074D06E0E06840F001036F
:1002D00094E8070098471034AC42F6D3FFF7DEFFEE
:1002E0004C0E00005C0E000081B04EF23861C4F28A
:1002F0000F01086840F0020008604EF20861C4F285
:100300000F01086840F008000860FFE74EF608207B
:10031000C4F20F0000680007002801D4FFE7F5E7EA
:1003200047F20041C4F20001086820F008000860AC
:1003300047F22041C4F20001086840F0080008605C
:1003400047F21C51C4F20001086820F00800086060
:1003500047F22851C4F20001086840F00800086024
:1003600000200090FFE70098132805D8FFE7FFE77B
:10037000009801300090F6E749F6C471C4F2030119
:100380000120086049F22001C4F2030140F2231069
:10039000086049F20001C4F203010020086049F23C
:1003A0001403C4F203031A6842F470421A6049F25B
:1003B0003003C4F2030303221A6049F2A003C4F21B
:1003C000030304221A6049F2A403C4F203030622C1
:1003D0001A6049F20802C4F20302106008200860A3
:1003E00001B0704781B04EF23861C4F20F01086865
:1003F00040F0020008604EF20861C4F20F01086884
:1004000040F002000860FFE74EF60820C4F20F003B
:1004100000688007002801D4FFE7F5E745F20041B6
:10042000C4F20001086820F02000086045F2204175
:10043000C4F20001086840F02000086045F21C5139
:10044000C4F20001086820F02000086045F228513D
:10045000C4F20001086840F020000860002000900D
:10046000FFE70098132805D8FFE7FFE70098013061
:100470000090F6E749F6C471C4F203010120086058
:1004800049F22001C4F2030140F22310086049F24E
:100490000001C4F203010020086049F21403C4F211
:1004A00003031A6842F470421A6049F23003C4F23E
:1004B000030303221A6049F2A003C4F203030B22D0
:1004C0001A6049F2A403C4F2030306221A6049F237
:1004D0000802C4F2030210600820086001B07047EF
:1004E00081B04EF23861C4F20F01086840F002009A
:1004F00008604EF20861C4F20F01086840F008007D
:100500000860FFE74EF60820C4F20F0000680007FD
:10051000002801D4FFE7F5E747F20041C4F20001EB
:10052000086820F00400086047F22041C4F200018E
:10053000086840F00400086047F21C51C4F2000152
:10054000086820F00400086047F22851C4F2000156
:10055000086840F00400086000200090FFE7009861
:10056000132805D8FFE7FFE7009801300090F6E771
:1005700049F6C471C4F203010120086049F2200168
:10058000C4F2030140F22310086049F20001C4F2F2
:1005900003010020086049F21403C4F203031A683F
:1005A00042F470421A6049F23003C4F2030303229A
:1005B0001A6049F2A003C4F2030305221A6049F24B
:1005C000A403C4F2030306221A6049F20802C4F22B
:1005D000030210600820086001B0704781B04EF23D
:1005E0003861C4F20F01086840F0020008604EF262
:1005F0000861C4F20F01086840F010000860FFE7CE
:100600004EF60820C4F20F000068C006002801D48E
:10061000FFE7F5E744F20041C4F20201086820F068
:100620000400086044F22041C4F20201086840F06E
:100630000400086044F21C51C4F20201086820F072
:100640000400086044F22851C4F20201086840F036
:100650000400086000200090FFE70098132805D8E8
:10066000FFE7FFE7009801300090F6E749F6C47015
:10067000C4F203000122026049F22001C4F2030126
:1006800040F22310086049F20001C4F20301002087
:10069000086049F2140CC4F2030CDCF8003043F497
:1006A0007043CCF8003049F2300CC4F2030C032341
:1006B000CCF8003049F2A003C4F203031A6049F2F7
:1006C000A403C4F2030306221A6049F20802C4F22A
:1006D000030210600820086001B0704745F2144022
:1006E000C4F2000000688006002801D5FFE7FFE79C
:1006F0007047000045F21001C4F20201086880F062
:1007000004000860704700004EF20861C4F20F0157
:10071000086840F020000860FFE74EF60820C4F2A9
:100720000F00006800F02000202801D0FFE7F4E768
:1007300045F22051C4F2020144F24B30C4F64F405E
:10074000086045F22451C4F202011F20086045F2FE
:100750002852C4F20202116821F01F01116045F213
:100760002C52C4F202020021116045F20043C4F28F
:1007700002030E221A6045F22042C4F20202116006
:1007800045F21052C4F202021121116045F21C51CF
:10079000C4F202010860704745F20801C4F2020188
:1007A000086880F0020008607047000044F2F030F2
:1007B000C4F200000168802040EA91004CF2000180
:1007C000C4F200010860704745F2FC10C4F200005A
:1007D000006840F080004CF20001C4F200010860A3
:1007E0007047000046F2C030C4F20000016880206B
:1007F00040EA11104CF20001C4F200010860704799
:1008000044F2FC30C4F20200006840F080004CF278
:100810000001C4F2000108607047000045F2FC309E
:10082000C4F20200006840F080004CF20001C4F203
:10083000000108607047000082B001904EF2700124
:10084000C4F20F010091086840F000400860086899
:1008500040F4006008604EF26002C4F20F021068BB
:1008600020F4F8601060106800F5A8601060086857
:1008700020F07000086008680860086820F40050E4
:100880000860086840F080400860086820F0FE506A
:10089000019A00EB82500860FFE74EF25000C4F26C
:1008A0000F0000684006002801D4FFE7F5E74EF28C
:1008B0007001C4F20F01086820F40060086002B003
:1008C0007047000049F2A800C4F203000068000964
:1008D0004CF20001C4F200010860704780B5FFF7D8
:1008E0005BFF80BD80B582B00190FFF7E1FC009016
:1008F0004EF21001CEF2000100200860019A013A88
:100900004EF21403CEF200031A604EF21802CEF239
:10091000000210604EF62052CEF200021068402312
:1009200063F31F601060072008600098FFF7C4FCA5
:1009300002B080BD80B582B08DF807000420FFF7BB
:100940007BFF4BF20040C0F2C4404FF4E13100F0B5
:1009500087F99DF80700042818D1FFE74EF20861D7
:10096000C4F20F01086840F00100086040F2AD7069
:10097000C0F200004BF20041C0F2C44142F21072DA
:10098000052300F0E9F8FFF791FCFFE79DF8070069
:10099000052818D1FFE74EF20861C4F20F0108687C
:1009A00040F00200086040F2C970C0F200004BF253
:1009B0000041C0F2C44142F21072052300F0CCF8AD
:1009C000FFF774FCFFE79DF80700062818D1FFE742
:1009D0004EF20861C4F20F01086840F0040008609C
:1009E00040F2E570C0F200004BF20041C0F2C44199
:1009F00042F21072052300F0AFF8FFF757FCFFE753
:100A00009DF80700072818D1FFE74EF20861C4F2ED
:100A10000F01086840F01000086040F60100C0F2C5
:100A200000004BF20041C0F2C44142F210720523B3
:100A300000F092F8FFF73AFCFFE79DF8070008285E
:100A400018D1FFE74EF20861C4F20F01086840F0C8
:100A50002000086040F61D00C0F200004BF200418B
:100A6000C0F2C44142F21072052300F075F8FFF79E
:100A70001DFCFFE79DF8070080B9FFE7FFF734FC96
:100A800040F6C500C0F200004BF20041C0F2C44184
:100A900042F21072052300F05FF8FFE79DF80700AF
:100AA000012810D1FFE7FFF71BFD40F6C500C0F29B
:100AB00000004BF20041C0F2C44142F21072052323
:100AC00000F04AF8FFE79DF80700022810D1FFE781
:100AD000FFF784FD40F6C500C0F200004BF2004174
:100AE000C0F2C44142F21072052300F035F8FFE76E
:100AF0009DF80700032810D1FFE7FFF773FC40F6CD
:100B0000C500C0F200004BF20041C0F2C44142F205
:100B10001072052300F020F8FFE702B080BD00004E
:100B200080B52421C4F203010120086040F20000D6
:100B3000C2F200000068804780BD000080B545F229
:100B40002401C4F203010120086040F20400C2F253
:100B500000000068804780BD80B586B00590049194
:100B600003928DF80B30039830B1FFE7039842F2FF
:100B70001171884201D3FFE770E09DF80B00072850
:100B800004DBFFE706208DF80B00FFE7FFF790FB83
:100B90000190059840F20401C2F2000108604EF293
:100BA0000461C4F20F01086840F020000860FFE70C
:100BB0004EF60420C4F20F0000688006002801D41D
:100BC000FFE7F5E745F20C01C4F20301086820F0E5
:100BD0000100086045F20002C4F203020020106028
:100BE00045F20403C4F2030302221A60049A039B31
:100BF000B2FBF3F2013A45F22803C4F203031A6090
:100C000045F23802C4F20302106045F22402C4F235
:100C100003020120106045F21802C4F203021068BA
:100C200040F0010010604EF25C42CEF2000210680B
:100C300020F0FF009DF80B3040EA431010604EF2A8
:100C40000812CEF200024FF080501060086840F0A9
:100C5000010008600198FFF72FFBFFE706B080BD99
:100C600082B0019000914EF21861C4F20F01086841
:100C700040F0010008604EF20861C4F20F010868FC
:100C800040F0010008604CF23001C4F20001086835
:100C900020F00100086001980009009AB0FBF2F012
:100CA0004CF22402C4F200021060019B009AB3FBD4
:100CB000F2F000FB1230800100EB5200B0FBF2F0CA
:100CC0004CF22802C4F2000210604CF22C02C4F272
:100CD000000270201060086840F00100086044F2D3
:100CE0002041C4F20001086840F00300086044F2AB
:100CF0001C51C4F20001086840F00300086044F28F
:100D00002C51C4F200010868112262F30700086048
:100D100044F22851C4F20001086820F00300086082
:100D200002B0704780B582B0002001900420FFF728
:100D300083FDFFF7B9FAFFF7E7FC00F019F844F27A
:100D40004020C0F20F00FFF7CDFD0320FFF7F2FDBA
:100D5000FFF7ACFAFFE745F21440C4F20000006868
:100D60008006002803D5FFE7FFF7C4FCFFE7F2E7A2
:100D70004EF20861C4F20F01086840F002000860FA
:100D8000FFE74EF60820C4F20F0000688007002835
:100D900001D4FFE7F5E745F22051C4F2000144F227
:100DA0004B30C4F64F40086045F22451C4F20001B4
:100DB0002020086045F22041C4F2000100200860B4
:100DC00045F22851C4F20001086045F21051C4F206
:100DD0000001086840F02000086045F20441C4F2B8
:100DE0000001086820F02000086045F20841C4F2C4
:100DF0000001086820F02000086045F20C41C4F2B0
:100E00000001086840F02000086045F21C51C4F25F
:100E10000001086800F02000086045F22C51C4F27F
:100E20000001086800F07F400860704702E008C8D1
:100E3000121F08C1002AFAD170477047002001E054
:100E400001C1121F002AFBD1704700005C0E000098
:0C0E500000000020080400003C0E000020
:040000050000029560
:00000001FF
