:020000040000FA
:10000000080400206D02000081020000830200004D
:100010008502000087020000890200000000000045
:100020000000000000000000000000008B02000043
:100030008D020000000000008F020000910200000D
:1000400093020000290300009302000093020000C5
:10005000930200009302000093020000930200004C
:10006000930200009302000093020000930200003C
:10007000930200009302000093020000930200002C
:10008000930200009302000093020000DD050000CF
:1000900093020000F90500009302000093020000A3
:1000A00093020000930200009302000093020000FC
:1000B0009302000093020000350300009302000049
:1000C00093020000930200009302000093020000DC
:1000D00093020000930200009302000093020000CC
:1000E00093020000000000000000000093020000E6
:1000F00093020000930200009302000093020000AC
:10010000930200009302000093020000930200009B
:1001100000000000000000009302000093020000B5
:10012000930200009302000093020000930200007B
:10013000930200009302000093020000930200006B
:1001400000000000000000000000000000000000AF
:10015000930200009302000093020000930200004B
:10016000000000000000000000000000000000008F
:10017000000000000000000000000000000000007F
:10018000000000000000000000000000000000006F
:10019000000000000000000000000000000000005F
:1001A000000000000000000000000000000000004F
:1001B00093020000930200009302000093020000EB
:1001C00093020000930200009302000093020000DB
:1001D00093020000930200009302000093020000CB
:1001E0009302000093020000930200000000000050
:1001F0000000000093020000930200009302000040
:1002000093020000930200000000000000000000C4
:10021000930200009302000093020000930200008A
:10022000930200009302000093020000930200007A
:10023000930200009302000093020000930200006A
:10024000930200009302000093020000930200005A
:10025000930200009302000093020000930200004A
:100260009302000093020000930200004EF68850B3
:10027000CEF20000016841F47001016000F00AB89C
:10028000FEE7FEE7FEE7FEE7FEE7FEE7FEE7FEE746
:10029000FEE7FEE7DFF80CD000F014F80048004756
:1002A000AD0600000804002072B6704762B67047C1
:1002B000EFF3108072B6704780F31088704730BF3C
:1002C00070470000064C074D06E0E06840F001036F
:1002D00094E8070098471034AC42F6D3FFF7DEFFEE
:1002E000FC0600000C07000045F21C41C4F20201AC
:1002F0001120086045F21041C4F20201086840F084
:10030000110008604EF21C41CEF200010868A022E4
:1003100062F3174008604EF20011CEF200014FF078
:10032000804008607047000080B500F069F800F078
:1003300073F980BD80B545F21440C4F20200006834
:10034000C00798B1FFE745F21041C4F20201086806
:1003500020F00100086045F21C41C4F202010120B6
:10036000086000F04DF800F057F9FFE780BD00008D
:100370004EF20861C4F20F01086840F020000860E6
:10038000FFE74EF60820C4F20F00006800F02000DE
:10039000202801D0FFE7F4E745F22051C4F2020122
:1003A00044F24B30C4F64F40086045F22451C4F289
:1003B00002011F20086045F22852C4F202021168AF
:1003C00021F01F01116045F22C52C4F202020021FB
:1003D000116045F20043C4F202030E221A6045F296
:1003E0002042C4F20202116045F21052C4F202022D
:1003F0001121116045F21C51C4F2020108607047DE
:1004000045F20801C4F20201086880F002000860A9
:100410007047000082B001904EF27001C4F20F01EB
:100420000091086840F000400860086840F40060EF
:1004300008604EF26002C4F20F02106820F4F86007
:100440001060106800F5A8601060086820F0700067
:10045000086008680860086820F4005008600868B0
:1004600040F080400860086820F0FE50019A00EBE0
:1004700082500860FFE74EF25000C4F20F0000689F
:100480004006002801D4FFE7F5E74EF27001C4F200
:100490000F01086820F40060086002B07047000097
:1004A00080B54EF20861C4F20F01086840F02000E8
:1004B0000860FFE74EF60820C4F20F0000688006CF
:1004C000002801D4FFE7F5E745F22051C4F202010C
:1004D00044F24B30C4F64F40086045F22451C4F258
:1004E00002011F20086045F20041C4F202010868C1
:1004F00040F00E000860086820F01100086045F226
:100500002041C4F20201086820F01F00086045F293
:100510001C51C4F20201086840F01F00086045F257
:100520002C51C4F2020108686FF31300086045F211
:100530002851C4F202010020086045F21051C4F2B3
:100540000201086840F01100086045F20441C4F25D
:100550000201086820F01100086045F20841C4F269
:100560000201086820F01100086045F20C41C4F255
:100570000201086800F01100086045F21C41C4F255
:1005800002011120086045F21041C4F2020108681E
:1005900040F0110008604EF21C41CEF200010868E4
:1005A000A02262F3174008604EF20011CEF2000163
:1005B0004FF080400860FFF797FE4EF20461C4F2EE
:1005C0000F01086840F0060008604EF20861C4F2AE
:1005D0000F01086840F02000086080BD80B524212C
:1005E000C4F203010120086040F20000C2F20000E2
:1005F0000068804780BD000080B541F22401C4F24C
:1006000003010120086041F21801C4F20301002037
:100610000860FFF769FE80BD81B04EF20460C4F24D
:100620000F00016841F0020101600068009041F292
:100630000C01C4F2030100220A600A6041F20000CA
:10064000C4F20300026041F20403C4F20303012078
:10065000186041F2280CC4F2030C47F20013C0F2F8
:100660000203CCF8003041F23803C4F203031A60ED
:1006700041F22402C4F20302106041F21802C4F2F3
:10068000030210604EF21443CEF200031A684FF0DA
:10069000800C6CF31F621A604EF20013CEF200035E
:1006A0004FF400021A60086001B0704780B582B054
:1006B000002001900420FFF7ADFEFFF7F5FDFFF7E6
:1006C00057FE00F007F8FFF7F1FDFFE7FFF7F7FD32
:1006D000FCE7000080B5FFF7E3FE80BD02E008C83C
:1006E000121F08C1002AFAD170477047002001E0AC
:1006F00001C1121F002AFBD1704700000C07000047
:0C0700000000002008040000EC060000CF
:040000050000029560
:00000001FF
